{
  "contractName": "CandidateManager",
  "abi": [
    {
      "inputs": [],
      "name": "getCandidates",
      "outputs": [
        {
          "components": [
            {
              "internalType": "string",
              "name": "name",
              "type": "string"
            },
            {
              "internalType": "uint256",
              "name": "votes",
              "type": "uint256"
            }
          ],
          "internalType": "struct Candidate[]",
          "name": "",
          "type": "tuple[]"
        }
      ],
      "stateMutability": "view",
      "type": "function"
    },
    {
      "inputs": [
        {
          "internalType": "string",
          "name": "_name",
          "type": "string"
        }
      ],
      "name": "isCandidateExist",
      "outputs": [
        {
          "internalType": "bool",
          "name": "",
          "type": "bool"
        }
      ],
      "stateMutability": "view",
      "type": "function"
    },
    {
      "inputs": [
        {
          "internalType": "string",
          "name": "_name",
          "type": "string"
        }
      ],
      "name": "addCandidate",
      "outputs": [],
      "stateMutability": "nonpayable",
      "type": "function"
    },
    {
      "inputs": [
        {
          "internalType": "string",
          "name": "_name",
          "type": "string"
        }
      ],
      "name": "removeCandidate",
      "outputs": [],
      "stateMutability": "nonpayable",
      "type": "function"
    },
    {
      "inputs": [],
      "name": "clearCandidates",
      "outputs": [],
      "stateMutability": "nonpayable",
      "type": "function"
    },
    {
      "inputs": [
        {
          "internalType": "string",
          "name": "_name",
          "type": "string"
        }
      ],
      "name": "addVote",
      "outputs": [],
      "stateMutability": "nonpayable",
      "type": "function"
    }
  ],
  "bytecode": "0x608060405234801561001057600080fd5b50611533806100206000396000f3fe608060405234801561001057600080fd5b50600436106100625760003560e01c806301c9605b1461006757806306a49fce14610083578063462e91ec146100a15780635c179f7e146100bd5780637e797dee146100c75780639192f1c8146100f7575b600080fd5b610081600480360381019061007c9190610b1a565b610113565b005b61008b61029b565b6040516100989190610cfa565b60405180910390f35b6100bb60048036038101906100b69190610b1a565b610425565b005b6100c56106a7565b005b6100e160048036038101906100dc9190610b1a565b610779565b6040516100ee9190610d37565b60405180910390f35b610111600480360381019061010c9190610b1a565b61081c565b005b604051806020016040528060008152506000826040516101339190610d8e565b908152602001604051809103902060000190816101509190610fb1565b50600080826040516101629190610d8e565b90815260200160405180910390206001018190555060005b60018054905081101561029757816040516020016101989190610d8e565b60405160208183030381529060405280519060200120600182815481106101c2576101c1611083565b5b906000526020600020016040516020016101dc9190611135565b6040516020818303038152906040528051906020012003610284576001808080549050610209919061117b565b8154811061021a57610219611083565b5b906000526020600020016001828154811061023857610237611083565b5b90600052602060002001908161024e91906111da565b506001805480610261576102606112c2565b5b60019003818190600052602060002001600061027d9190610904565b9055610297565b808061028f906112f1565b91505061017a565b5050565b6060600060018054905067ffffffffffffffff8111156102be576102bd6109ef565b5b6040519080825280602002602001820160405280156102f757816020015b6102e4610944565b8152602001906001900390816102dc5790505b50905060005b60018054905081101561041d576000600182815481106103205761031f611083565b5b906000526020600020016040516103379190611135565b908152602001604051809103902060405180604001604052908160008201805461036090610dd4565b80601f016020809104026020016040519081016040528092919081815260200182805461038c90610dd4565b80156103d95780601f106103ae576101008083540402835291602001916103d9565b820191906000526020600020905b8154815290600101906020018083116103bc57829003601f168201915b505050505081526020016001820154815250508282815181106103ff576103fe611083565b5b60200260200101819052508080610415906112f1565b9150506102fd565b508091505090565b600080826040516104369190610d8e565b908152602001604051809103902060405180604001604052908160008201805461045f90610dd4565b80601f016020809104026020016040519081016040528092919081815260200182805461048b90610dd4565b80156104d85780601f106104ad576101008083540402835291602001916104d8565b820191906000526020600020905b8154815290600101906020018083116104bb57829003601f168201915b5050505050815260200160018201548152505090506040516020016104fc9061135f565b60405160208183030381529060405280519060200120826040516020016105239190610d8e565b6040516020818303038152906040528051906020012003610579576040517f08c379a0000000000000000000000000000000000000000000000000000000008152600401610570906113d1565b60405180910390fd5b6040516020016105889061135f565b6040516020818303038152906040528051906020012081600001516040516020016105b39190610d8e565b604051602081830303815290604052805190602001201480156105da575060008160200151145b610619576040517f08c379a00000000000000000000000000000000000000000000000000000000081526004016106109061143d565b60405180910390fd5b60018290806001815401808255809150506001900390600052602060002001600090919091909150908161064d9190610fb1565b508160008360405161065f9190610d8e565b9081526020016040518091039020600001908161067c9190610fb1565b506000808360405161068e9190610d8e565b9081526020016040518091039020600101819055505050565b60005b60018054905081101561076857604051806020016040528060008152506000600183815481106106dd576106dc611083565b5b906000526020600020016040516106f49190611135565b908152602001604051809103902060000190816107119190610fb1565b506000806001838154811061072957610728611083565b5b906000526020600020016040516107409190611135565b9081526020016040518091039020600101819055508080610760906112f1565b9150506106aa565b5060016000610777919061095e565b565b600060405160200161078a9061135f565b604051602081830303815290604052805190602001206000836040516107b09190610d8e565b90815260200160405180910390206000016040516020016107d19190611135565b604051602081830303815290604052805190602001201415806108155750600080836040516108009190610d8e565b90815260200160405180910390206001015414155b9050919050565b60405160200161082b9061135f565b604051602081830303815290604052805190602001206000826040516108519190610d8e565b90815260200160405180910390206000016040516020016108729190611135565b60405160208183030381529060405280519060200120036108c8576040517f08c379a00000000000000000000000000000000000000000000000000000000081526004016108bf906114a9565b60405180910390fd5b60016000826040516108da9190610d8e565b908152602001604051809103902060010160008282546108fa91906114c9565b9250508190555050565b50805461091090610dd4565b6000825580601f106109225750610941565b601f016020900490600052602060002090810190610940919061097f565b5b50565b604051806040016040528060608152602001600081525090565b508054600082559060005260206000209081019061097c919061099c565b50565b5b80821115610998576000816000905550600101610980565b5090565b5b808211156109bc57600081816109b39190610904565b5060010161099d565b5090565b6000604051905090565b600080fd5b600080fd5b600080fd5b600080fd5b6000601f19601f8301169050919050565b7f4e487b7100000000000000000000000000000000000000000000000000000000600052604160045260246000fd5b610a27826109de565b810181811067ffffffffffffffff82111715610a4657610a456109ef565b5b80604052505050565b6000610a596109c0565b9050610a658282610a1e565b919050565b600067ffffffffffffffff821115610a8557610a846109ef565b5b610a8e826109de565b9050602081019050919050565b82818337600083830152505050565b6000610abd610ab884610a6a565b610a4f565b905082815260208101848484011115610ad957610ad86109d9565b5b610ae4848285610a9b565b509392505050565b600082601f830112610b0157610b006109d4565b5b8135610b11848260208601610aaa565b91505092915050565b600060208284031215610b3057610b2f6109ca565b5b600082013567ffffffffffffffff811115610b4e57610b4d6109cf565b5b610b5a84828501610aec565b91505092915050565b600081519050919050565b600082825260208201905092915050565b6000819050602082019050919050565b600081519050919050565b600082825260208201905092915050565b60005b83811015610bc9578082015181840152602081019050610bae565b60008484015250505050565b6000610be082610b8f565b610bea8185610b9a565b9350610bfa818560208601610bab565b610c03816109de565b840191505092915050565b6000819050919050565b610c2181610c0e565b82525050565b60006040830160008301518482036000860152610c448282610bd5565b9150506020830151610c596020860182610c18565b508091505092915050565b6000610c708383610c27565b905092915050565b6000602082019050919050565b6000610c9082610b63565b610c9a8185610b6e565b935083602082028501610cac85610b7f565b8060005b85811015610ce85784840389528151610cc98582610c64565b9450610cd483610c78565b925060208a01995050600181019050610cb0565b50829750879550505050505092915050565b60006020820190508181036000830152610d148184610c85565b905092915050565b60008115159050919050565b610d3181610d1c565b82525050565b6000602082019050610d4c6000830184610d28565b92915050565b600081905092915050565b6000610d6882610b8f565b610d728185610d52565b9350610d82818560208601610bab565b80840191505092915050565b6000610d9a8284610d5d565b915081905092915050565b7f4e487b7100000000000000000000000000000000000000000000000000000000600052602260045260246000fd5b60006002820490506001821680610dec57607f821691505b602082108103610dff57610dfe610da5565b5b50919050565b60008190508160005260206000209050919050565b60006020601f8301049050919050565b600082821b905092915050565b600060088302610e677fffffffffffffffffffffffffffffffffffffffffffffffffffffffffffffffff82610e2a565b610e718683610e2a565b95508019841693508086168417925050509392505050565b6000819050919050565b6000610eae610ea9610ea484610c0e565b610e89565b610c0e565b9050919050565b6000819050919050565b610ec883610e93565b610edc610ed482610eb5565b848454610e37565b825550505050565b600090565b610ef1610ee4565b610efc818484610ebf565b505050565b5b81811015610f2057610f15600082610ee9565b600181019050610f02565b5050565b601f821115610f6557610f3681610e05565b610f3f84610e1a565b81016020851015610f4e578190505b610f62610f5a85610e1a565b830182610f01565b50505b505050565b600082821c905092915050565b6000610f8860001984600802610f6a565b1980831691505092915050565b6000610fa18383610f77565b9150826002028217905092915050565b610fba82610b8f565b67ffffffffffffffff811115610fd357610fd26109ef565b5b610fdd8254610dd4565b610fe8828285610f24565b600060209050601f83116001811461101b5760008415611009578287015190505b6110138582610f95565b86555061107b565b601f19841661102986610e05565b60005b828110156110515784890151825560018201915060208501945060208101905061102c565b8683101561106e578489015161106a601f891682610f77565b8355505b6001600288020188555050505b505050505050565b7f4e487b7100000000000000000000000000000000000000000000000000000000600052603260045260246000fd5b600081546110bf81610dd4565b6110c98186610d52565b945060018216600081146110e457600181146110f95761112c565b60ff198316865281151582028601935061112c565b61110285610e05565b60005b8381101561112457815481890152600182019150602081019050611105565b838801955050505b50505092915050565b600061114182846110b2565b915081905092915050565b7f4e487b7100000000000000000000000000000000000000000000000000000000600052601160045260246000fd5b600061118682610c0e565b915061119183610c0e565b92508282039050818111156111a9576111a861114c565b5b92915050565b6000815490506111be81610dd4565b9050919050565b60008190508160005260206000209050919050565b8181036111e85750506112c0565b6111f1826111af565b67ffffffffffffffff81111561120a576112096109ef565b5b6112148254610dd4565b61121f828285610f24565b6000601f83116001811461124e576000841561123c578287015490505b6112468582610f95565b8655506112b9565b601f19841661125c876111c5565b965061126786610e05565b60005b8281101561128f5784890154825560018201915060018501945060208101905061126a565b868310156112ac57848901546112a8601f891682610f77565b8355505b6001600288020188555050505b5050505050505b565b7f4e487b7100000000000000000000000000000000000000000000000000000000600052603160045260246000fd5b60006112fc82610c0e565b91507fffffffffffffffffffffffffffffffffffffffffffffffffffffffffffffffff820361132e5761132d61114c565b5b600182019050919050565b50565b6000611349600083610d52565b915061135482611339565b600082019050919050565b600061136a8261133c565b9150819050919050565b600082825260208201905092915050565b7f4e616d652063616e6e6f7420626520626c616e6b000000000000000000000000600082015250565b60006113bb601483611374565b91506113c682611385565b602082019050919050565b600060208201905081810360008301526113ea816113ae565b9050919050565b7f4e616d6520616c72656164792065786973740000000000000000000000000000600082015250565b6000611427601283611374565b9150611432826113f1565b602082019050919050565b600060208201905081810360008301526114568161141a565b9050919050565b7f496e76616c69642043616e646964617465000000000000000000000000000000600082015250565b6000611493601183611374565b915061149e8261145d565b602082019050919050565b600060208201905081810360008301526114c281611486565b9050919050565b60006114d482610c0e565b91506114df83610c0e565b92508282019050808211156114f7576114f661114c565b5b9291505056fea2646970667358221220b82a644a1b0b5c56c82a6901ae8691208e6611da694d472d4a6e2d5ff940a48b64736f6c63430008110033",
  "immutableReferences": {},
  "source": "// SPDX-License-Identifier: MIT\r\npragma solidity ^0.8.0;\r\n\r\nstruct Candidate {\r\n    string name;\r\n    uint256 votes;\r\n}\r\n\r\ncontract CandidateManager {\r\n    mapping(string => Candidate) private candidates;\r\n    string[] private candidateKeys;\r\n\r\n    function getCandidates() public view returns (Candidate[] memory) {\r\n        Candidate[] memory output = new Candidate[](candidateKeys.length);\r\n\r\n        for (uint256 i = 0; i < candidateKeys.length; i++) {\r\n            output[i] = candidates[candidateKeys[i]];\r\n        }\r\n\r\n        return output;\r\n    }\r\n\r\n    function isCandidateExist(string memory _name) public view returns (bool) {\r\n        return keccak256(abi.encodePacked(candidates[_name].name)) != keccak256(abi.encodePacked(\"\")) || candidates[_name].votes != 0;\r\n    }\r\n\r\n    function addCandidate(string memory _name) public {\r\n        Candidate memory candidate = candidates[_name];\r\n\r\n        require(keccak256(abi.encodePacked(_name)) != keccak256(abi.encodePacked(\"\")), \"Name cannot be blank\");\r\n        require(keccak256(abi.encodePacked(candidate.name)) == keccak256(abi.encodePacked(\"\")) && candidate.votes == 0, \"Name already exist\");\r\n\r\n        candidateKeys.push(_name);\r\n        candidates[_name].name = _name;\r\n        candidates[_name].votes = 0;\r\n    }\r\n\r\n    function removeCandidate(string memory _name) public {\r\n        candidates[_name].name = \"\";\r\n        candidates[_name].votes = 0;\r\n\r\n        for (uint256 i = 0; i < candidateKeys.length; i++) {\r\n            if (keccak256(abi.encodePacked(candidateKeys[i])) == keccak256(abi.encodePacked(_name))) {\r\n                candidateKeys[i] = candidateKeys[candidateKeys.length - 1];\r\n                candidateKeys.pop();\r\n                break;\r\n            }\r\n        }\r\n    }\r\n\r\n    function clearCandidates() public {\r\n        for (uint256 i = 0; i < candidateKeys.length; i++) {\r\n            candidates[candidateKeys[i]].name = \"\";\r\n            candidates[candidateKeys[i]].votes = 0;\r\n        }\r\n\r\n        delete candidateKeys;\r\n    }\r\n\r\n    function addVote(string memory _name) public {\r\n        require(keccak256(abi.encodePacked(candidates[_name].name)) != keccak256(abi.encodePacked(\"\")), \"Invalid Candidate\");\r\n        candidates[_name].votes += 1;\r\n    }\r\n}",
  "sourcePath": "C:\\Users\\Euan Lim\\OneDrive\\Desktop\\Hackathons\\KL-Mini-Hack\\truffle-project\\contracts\\CandidateManager.sol",
  "compiler": {
    "name": "solc",
    "version": "0.8.17+commit.8df45f5f.Emscripten.clang"
  },
  "schemaVersion": "3.4.12",
  "updatedAt": "2023-02-17T08:06:46.947Z",
  "devdoc": {
    "kind": "dev",
    "methods": {},
    "version": 1
  },
  "userdoc": {
    "kind": "user",
    "methods": {},
    "version": 1
  }
}