{
  "contractName": "CandidateManager",
  "abi": [
    {
      "inputs": [],
      "name": "getCandidates",
      "outputs": [
        {
          "components": [
            {
              "internalType": "string",
              "name": "name",
              "type": "string"
            },
            {
              "internalType": "uint256",
              "name": "votes",
              "type": "uint256"
            }
          ],
          "internalType": "struct Candidate[]",
          "name": "",
          "type": "tuple[]"
        }
      ],
      "stateMutability": "view",
      "type": "function"
    },
    {
      "inputs": [
        {
          "internalType": "string",
          "name": "_name",
          "type": "string"
        }
      ],
      "name": "isCandidateExist",
      "outputs": [
        {
          "internalType": "bool",
          "name": "",
          "type": "bool"
        }
      ],
      "stateMutability": "view",
      "type": "function"
    },
    {
      "inputs": [
        {
          "internalType": "string",
          "name": "_name",
          "type": "string"
        }
      ],
      "name": "addCandidate",
      "outputs": [
        {
          "internalType": "bool",
          "name": "",
          "type": "bool"
        }
      ],
      "stateMutability": "nonpayable",
      "type": "function"
    },
    {
      "inputs": [
        {
          "internalType": "string",
          "name": "_name",
          "type": "string"
        }
      ],
      "name": "removeCandidate",
      "outputs": [],
      "stateMutability": "nonpayable",
      "type": "function"
    },
    {
      "inputs": [],
      "name": "clearCandidates",
      "outputs": [],
      "stateMutability": "nonpayable",
      "type": "function"
    },
    {
      "inputs": [
        {
          "internalType": "string",
          "name": "_name",
          "type": "string"
        }
      ],
      "name": "addVote",
      "outputs": [],
      "stateMutability": "nonpayable",
      "type": "function"
    }
  ],
  "bytecode": "0x608060405234801561001057600080fd5b506114b4806100206000396000f3fe608060405234801561001057600080fd5b50600436106100625760003560e01c806301c9605b1461006757806306a49fce14610083578063462e91ec146100a15780635c179f7e146100d15780637e797dee146100db5780639192f1c81461010b575b600080fd5b610081600480360381019061007c9190610b07565b610127565b005b61008b6102af565b6040516100989190610ce7565b60405180910390f35b6100bb60048036038101906100b69190610b07565b610439565b6040516100c89190610d24565b60405180910390f35b6100d9610694565b005b6100f560048036038101906100f09190610b07565b610766565b6040516101029190610d24565b60405180910390f35b61012560048036038101906101209190610b07565b610809565b005b604051806020016040528060008152506000826040516101479190610d7b565b908152602001604051809103902060000190816101649190610f9e565b50600080826040516101769190610d7b565b90815260200160405180910390206001018190555060005b6001805490508110156102ab57816040516020016101ac9190610d7b565b60405160208183030381529060405280519060200120600182815481106101d6576101d5611070565b5b906000526020600020016040516020016101f09190611122565b604051602081830303815290604052805190602001200361029857600180808054905061021d9190611168565b8154811061022e5761022d611070565b5b906000526020600020016001828154811061024c5761024b611070565b5b90600052602060002001908161026291906111c7565b506001805480610275576102746112af565b5b60019003818190600052602060002001600061029191906108f1565b90556102ab565b80806102a3906112de565b91505061018e565b5050565b6060600060018054905067ffffffffffffffff8111156102d2576102d16109dc565b5b60405190808252806020026020018201604052801561030b57816020015b6102f8610931565b8152602001906001900390816102f05790505b50905060005b6001805490508110156104315760006001828154811061033457610333611070565b5b9060005260206000200160405161034b9190611122565b908152602001604051809103902060405180604001604052908160008201805461037490610dc1565b80601f01602080910402602001604051908101604052809291908181526020018280546103a090610dc1565b80156103ed5780601f106103c2576101008083540402835291602001916103ed565b820191906000526020600020905b8154815290600101906020018083116103d057829003601f168201915b5050505050815260200160018201548152505082828151811061041357610412611070565b5b60200260200101819052508080610429906112de565b915050610311565b508091505090565b600060405160200161044a9061134c565b60405160208183030381529060405280519060200120826040516020016104719190610d7b565b60405160208183030381529060405280519060200120036104c7576040517f08c379a00000000000000000000000000000000000000000000000000000000081526004016104be906113be565b60405180910390fd5b600080836040516104d89190610d7b565b908152602001604051809103902060405180604001604052908160008201805461050190610dc1565b80601f016020809104026020016040519081016040528092919081815260200182805461052d90610dc1565b801561057a5780601f1061054f5761010080835404028352916020019161057a565b820191906000526020600020905b81548152906001019060200180831161055d57829003601f168201915b50505050508152602001600182015481525050905060405160200161059e9061134c565b6040516020818303038152906040528051906020012081600001516040516020016105c99190610d7b565b604051602081830303815290604052805190602001201480156105f0575060008160200151145b15610689576001839080600181540180825580915050600190039060005260206000200160009091909190915090816106299190610f9e565b508260008460405161063b9190610d7b565b908152602001604051809103902060000190816106589190610f9e565b506000808460405161066a9190610d7b565b908152602001604051809103902060010181905550600191505061068f565b60009150505b919050565b60005b60018054905081101561075557604051806020016040528060008152506000600183815481106106ca576106c9611070565b5b906000526020600020016040516106e19190611122565b908152602001604051809103902060000190816106fe9190610f9e565b506000806001838154811061071657610715611070565b5b9060005260206000200160405161072d9190611122565b908152602001604051809103902060010181905550808061074d906112de565b915050610697565b5060016000610764919061094b565b565b60006040516020016107779061134c565b6040516020818303038152906040528051906020012060008360405161079d9190610d7b565b90815260200160405180910390206000016040516020016107be9190611122565b604051602081830303815290604052805190602001201415806108025750600080836040516107ed9190610d7b565b90815260200160405180910390206001015414155b9050919050565b6040516020016108189061134c565b6040516020818303038152906040528051906020012060008260405161083e9190610d7b565b908152602001604051809103902060000160405160200161085f9190611122565b60405160208183030381529060405280519060200120036108b5576040517f08c379a00000000000000000000000000000000000000000000000000000000081526004016108ac9061142a565b60405180910390fd5b60016000826040516108c79190610d7b565b908152602001604051809103902060010160008282546108e7919061144a565b9250508190555050565b5080546108fd90610dc1565b6000825580601f1061090f575061092e565b601f01602090049060005260206000209081019061092d919061096c565b5b50565b604051806040016040528060608152602001600081525090565b50805460008255906000526020600020908101906109699190610989565b50565b5b8082111561098557600081600090555060010161096d565b5090565b5b808211156109a957600081816109a091906108f1565b5060010161098a565b5090565b6000604051905090565b600080fd5b600080fd5b600080fd5b600080fd5b6000601f19601f8301169050919050565b7f4e487b7100000000000000000000000000000000000000000000000000000000600052604160045260246000fd5b610a14826109cb565b810181811067ffffffffffffffff82111715610a3357610a326109dc565b5b80604052505050565b6000610a466109ad565b9050610a528282610a0b565b919050565b600067ffffffffffffffff821115610a7257610a716109dc565b5b610a7b826109cb565b9050602081019050919050565b82818337600083830152505050565b6000610aaa610aa584610a57565b610a3c565b905082815260208101848484011115610ac657610ac56109c6565b5b610ad1848285610a88565b509392505050565b600082601f830112610aee57610aed6109c1565b5b8135610afe848260208601610a97565b91505092915050565b600060208284031215610b1d57610b1c6109b7565b5b600082013567ffffffffffffffff811115610b3b57610b3a6109bc565b5b610b4784828501610ad9565b91505092915050565b600081519050919050565b600082825260208201905092915050565b6000819050602082019050919050565b600081519050919050565b600082825260208201905092915050565b60005b83811015610bb6578082015181840152602081019050610b9b565b60008484015250505050565b6000610bcd82610b7c565b610bd78185610b87565b9350610be7818560208601610b98565b610bf0816109cb565b840191505092915050565b6000819050919050565b610c0e81610bfb565b82525050565b60006040830160008301518482036000860152610c318282610bc2565b9150506020830151610c466020860182610c05565b508091505092915050565b6000610c5d8383610c14565b905092915050565b6000602082019050919050565b6000610c7d82610b50565b610c878185610b5b565b935083602082028501610c9985610b6c565b8060005b85811015610cd55784840389528151610cb68582610c51565b9450610cc183610c65565b925060208a01995050600181019050610c9d565b50829750879550505050505092915050565b60006020820190508181036000830152610d018184610c72565b905092915050565b60008115159050919050565b610d1e81610d09565b82525050565b6000602082019050610d396000830184610d15565b92915050565b600081905092915050565b6000610d5582610b7c565b610d5f8185610d3f565b9350610d6f818560208601610b98565b80840191505092915050565b6000610d878284610d4a565b915081905092915050565b7f4e487b7100000000000000000000000000000000000000000000000000000000600052602260045260246000fd5b60006002820490506001821680610dd957607f821691505b602082108103610dec57610deb610d92565b5b50919050565b60008190508160005260206000209050919050565b60006020601f8301049050919050565b600082821b905092915050565b600060088302610e547fffffffffffffffffffffffffffffffffffffffffffffffffffffffffffffffff82610e17565b610e5e8683610e17565b95508019841693508086168417925050509392505050565b6000819050919050565b6000610e9b610e96610e9184610bfb565b610e76565b610bfb565b9050919050565b6000819050919050565b610eb583610e80565b610ec9610ec182610ea2565b848454610e24565b825550505050565b600090565b610ede610ed1565b610ee9818484610eac565b505050565b5b81811015610f0d57610f02600082610ed6565b600181019050610eef565b5050565b601f821115610f5257610f2381610df2565b610f2c84610e07565b81016020851015610f3b578190505b610f4f610f4785610e07565b830182610eee565b50505b505050565b600082821c905092915050565b6000610f7560001984600802610f57565b1980831691505092915050565b6000610f8e8383610f64565b9150826002028217905092915050565b610fa782610b7c565b67ffffffffffffffff811115610fc057610fbf6109dc565b5b610fca8254610dc1565b610fd5828285610f11565b600060209050601f8311600181146110085760008415610ff6578287015190505b6110008582610f82565b865550611068565b601f19841661101686610df2565b60005b8281101561103e57848901518255600182019150602085019450602081019050611019565b8683101561105b5784890151611057601f891682610f64565b8355505b6001600288020188555050505b505050505050565b7f4e487b7100000000000000000000000000000000000000000000000000000000600052603260045260246000fd5b600081546110ac81610dc1565b6110b68186610d3f565b945060018216600081146110d157600181146110e657611119565b60ff1983168652811515820286019350611119565b6110ef85610df2565b60005b83811015611111578154818901526001820191506020810190506110f2565b838801955050505b50505092915050565b600061112e828461109f565b915081905092915050565b7f4e487b7100000000000000000000000000000000000000000000000000000000600052601160045260246000fd5b600061117382610bfb565b915061117e83610bfb565b925082820390508181111561119657611195611139565b5b92915050565b6000815490506111ab81610dc1565b9050919050565b60008190508160005260206000209050919050565b8181036111d55750506112ad565b6111de8261119c565b67ffffffffffffffff8111156111f7576111f66109dc565b5b6112018254610dc1565b61120c828285610f11565b6000601f83116001811461123b5760008415611229578287015490505b6112338582610f82565b8655506112a6565b601f198416611249876111b2565b965061125486610df2565b60005b8281101561127c57848901548255600182019150600185019450602081019050611257565b868310156112995784890154611295601f891682610f64565b8355505b6001600288020188555050505b5050505050505b565b7f4e487b7100000000000000000000000000000000000000000000000000000000600052603160045260246000fd5b60006112e982610bfb565b91507fffffffffffffffffffffffffffffffffffffffffffffffffffffffffffffffff820361131b5761131a611139565b5b600182019050919050565b50565b6000611336600083610d3f565b915061134182611326565b600082019050919050565b600061135782611329565b9150819050919050565b600082825260208201905092915050565b7f4e616d652063616e6e6f7420626520626c616e6b000000000000000000000000600082015250565b60006113a8601483611361565b91506113b382611372565b602082019050919050565b600060208201905081810360008301526113d78161139b565b9050919050565b7f496e76616c69642043616e646964617465000000000000000000000000000000600082015250565b6000611414601183611361565b915061141f826113de565b602082019050919050565b6000602082019050818103600083015261144381611407565b9050919050565b600061145582610bfb565b915061146083610bfb565b925082820190508082111561147857611477611139565b5b9291505056fea2646970667358221220717359d75cba8bd6f03551129b56752a64476314dc1326323a2d38be255d0f8b64736f6c63430008110033",
  "immutableReferences": {},
  "source": "// SPDX-License-Identifier: MIT\r\npragma solidity ^0.8.0;\r\n\r\nstruct Candidate {\r\n    string name;\r\n    uint256 votes;\r\n}\r\n\r\ncontract CandidateManager {\r\n    mapping(string => Candidate) private candidates;\r\n    string[] private candidateKeys;\r\n\r\n    function getCandidates() public view returns (Candidate[] memory) {\r\n        Candidate[] memory output = new Candidate[](candidateKeys.length);\r\n\r\n        for (uint256 i = 0; i < candidateKeys.length; i++) {\r\n            output[i] = candidates[candidateKeys[i]];\r\n        }\r\n\r\n        return output;\r\n    }\r\n\r\n    function isCandidateExist(string memory _name) public view returns (bool) {\r\n        return keccak256(abi.encodePacked(candidates[_name].name)) != keccak256(abi.encodePacked(\"\")) || candidates[_name].votes != 0;\r\n    }\r\n\r\n    function addCandidate(string memory _name) public returns (bool) {\r\n        require(keccak256(abi.encodePacked(_name)) != keccak256(abi.encodePacked(\"\")), \"Name cannot be blank\");\r\n\r\n        Candidate memory candidate = candidates[_name];\r\n\r\n        if (keccak256(abi.encodePacked(candidate.name)) == keccak256(abi.encodePacked(\"\")) && candidate.votes == 0) {\r\n            candidateKeys.push(_name);\r\n            candidates[_name].name = _name;\r\n            candidates[_name].votes = 0;\r\n\r\n            return true;\r\n        } else {\r\n            return false;\r\n        }\r\n    }\r\n\r\n    function removeCandidate(string memory _name) public {\r\n        candidates[_name].name = \"\";\r\n        candidates[_name].votes = 0;\r\n\r\n        for (uint256 i = 0; i < candidateKeys.length; i++) {\r\n            if (keccak256(abi.encodePacked(candidateKeys[i])) == keccak256(abi.encodePacked(_name))) {\r\n                candidateKeys[i] = candidateKeys[candidateKeys.length - 1];\r\n                candidateKeys.pop();\r\n                break;\r\n            }\r\n        }\r\n    }\r\n\r\n    function clearCandidates() public {\r\n        for (uint256 i = 0; i < candidateKeys.length; i++) {\r\n            candidates[candidateKeys[i]].name = \"\";\r\n            candidates[candidateKeys[i]].votes = 0;\r\n        }\r\n\r\n        delete candidateKeys;\r\n    }\r\n\r\n    function addVote(string memory _name) public {\r\n        require(keccak256(abi.encodePacked(candidates[_name].name)) != keccak256(abi.encodePacked(\"\")), \"Invalid Candidate\");\r\n        candidates[_name].votes += 1;\r\n    }\r\n}",
  "sourcePath": "C:\\Users\\User\\Desktop\\Assignments\\MiniHackKL2023\\KL-Mini-Hack\\truffle-project\\contracts\\CandidateManager.sol",
  "compiler": {
    "name": "solc",
    "version": "0.8.17+commit.8df45f5f.Emscripten.clang"
  },
  "schemaVersion": "3.4.11",
  "updatedAt": "2023-02-16T10:51:31.577Z",
  "devdoc": {
    "kind": "dev",
    "methods": {},
    "version": 1
  },
  "userdoc": {
    "kind": "user",
    "methods": {},
    "version": 1
  }
}