{
  "contractName": "VotingEvent",
  "abi": [
    {
      "inputs": [
        {
          "internalType": "address",
          "name": "_host",
          "type": "address"
        }
      ],
      "stateMutability": "nonpayable",
      "type": "constructor"
    },
    {
      "inputs": [],
      "name": "getCandidateManager",
      "outputs": [
        {
          "internalType": "contract CandidateManager",
          "name": "",
          "type": "address"
        }
      ],
      "stateMutability": "view",
      "type": "function"
    },
    {
      "inputs": [],
      "name": "getParticipantManager",
      "outputs": [
        {
          "internalType": "contract ParticipantManager",
          "name": "",
          "type": "address"
        }
      ],
      "stateMutability": "view",
      "type": "function"
    },
    {
      "inputs": [],
      "name": "getHost",
      "outputs": [
        {
          "internalType": "address",
          "name": "",
          "type": "address"
        }
      ],
      "stateMutability": "view",
      "type": "function"
    }
  ],
  "bytecode": "0x608060405234801561001057600080fd5b506040516117c13803806117c1833981810160405281019061003291906101c6565b60405161003e9061014a565b604051809103906000f08015801561005a573d6000803e3d6000fd5b506000806101000a81548173ffffffffffffffffffffffffffffffffffffffff021916908373ffffffffffffffffffffffffffffffffffffffff1602179055506040516100a690610157565b604051809103906000f0801580156100c2573d6000803e3d6000fd5b50600160006101000a81548173ffffffffffffffffffffffffffffffffffffffff021916908373ffffffffffffffffffffffffffffffffffffffff16021790555080600260006101000a81548173ffffffffffffffffffffffffffffffffffffffff021916908373ffffffffffffffffffffffffffffffffffffffff160217905550506101f3565b6112fe8061046783390190565b605c8061176583390190565b600080fd5b600073ffffffffffffffffffffffffffffffffffffffff82169050919050565b600061019382610168565b9050919050565b6101a381610188565b81146101ae57600080fd5b50565b6000815190506101c08161019a565b92915050565b6000602082840312156101dc576101db610163565b5b60006101ea848285016101b1565b91505092915050565b610265806102026000396000f3fe608060405234801561001057600080fd5b50600436106100415760003560e01c806320bc442514610046578063a202915814610064578063b5f07d2f14610082575b600080fd5b61004e6100a0565b60405161005b919061015e565b60405180910390f35b61006c6100ca565b60405161007991906101d8565b60405180910390f35b61008a6100f4565b6040516100979190610214565b60405180910390f35b6000600260009054906101000a900473ffffffffffffffffffffffffffffffffffffffff16905090565b6000600160009054906101000a900473ffffffffffffffffffffffffffffffffffffffff16905090565b60008060009054906101000a900473ffffffffffffffffffffffffffffffffffffffff16905090565b600073ffffffffffffffffffffffffffffffffffffffff82169050919050565b60006101488261011d565b9050919050565b6101588161013d565b82525050565b6000602082019050610173600083018461014f565b92915050565b6000819050919050565b600061019e6101996101948461011d565b610179565b61011d565b9050919050565b60006101b082610183565b9050919050565b60006101c2826101a5565b9050919050565b6101d2816101b7565b82525050565b60006020820190506101ed60008301846101c9565b92915050565b60006101fe826101a5565b9050919050565b61020e816101f3565b82525050565b60006020820190506102296000830184610205565b9291505056fea2646970667358221220375f458c54cf0597c3067cf9b66281926745cfefc8f7b209f05784709793f58c64736f6c63430008120033608060405234801561001057600080fd5b506112de806100206000396000f3fe608060405234801561001057600080fd5b50600436106100575760003560e01c806301c9605b1461005c57806306a49fce14610078578063462e91ec146100965780635c179f7e146100c65780639192f1c8146100d0575b600080fd5b6100766004803603810190610071919061099d565b6100ec565b005b610080610274565b60405161008d9190610b7d565b60405180910390f35b6100b060048036038101906100ab919061099d565b6103fe565b6040516100bd9190610bba565b60405180910390f35b6100ce6105cd565b005b6100ea60048036038101906100e5919061099d565b61069f565b005b6040518060200160405280600081525060008260405161010c9190610c11565b908152602001604051809103902060000190816101299190610e34565b506000808260405161013b9190610c11565b90815260200160405180910390206001018190555060005b60018054905081101561027057816040516020016101719190610c11565b604051602081830303815290604052805190602001206001828154811061019b5761019a610f06565b5b906000526020600020016040516020016101b59190610fb8565b604051602081830303815290604052805190602001200361025d5760018080805490506101e29190610ffe565b815481106101f3576101f2610f06565b5b906000526020600020016001828154811061021157610210610f06565b5b906000526020600020019081610227919061105d565b50600180548061023a57610239611145565b5b6001900381819060005260206000200160006102569190610787565b9055610270565b808061026890611174565b915050610153565b5050565b6060600060018054905067ffffffffffffffff81111561029757610296610872565b5b6040519080825280602002602001820160405280156102d057816020015b6102bd6107c7565b8152602001906001900390816102b55790505b50905060005b6001805490508110156103f6576000600182815481106102f9576102f8610f06565b5b906000526020600020016040516103109190610fb8565b908152602001604051809103902060405180604001604052908160008201805461033990610c57565b80601f016020809104026020016040519081016040528092919081815260200182805461036590610c57565b80156103b25780601f10610387576101008083540402835291602001916103b2565b820191906000526020600020905b81548152906001019060200180831161039557829003601f168201915b505050505081526020016001820154815250508282815181106103d8576103d7610f06565b5b602002602001018190525080806103ee90611174565b9150506102d6565b508091505090565b6000806000836040516104119190610c11565b908152602001604051809103902060405180604001604052908160008201805461043a90610c57565b80601f016020809104026020016040519081016040528092919081815260200182805461046690610c57565b80156104b35780601f10610488576101008083540402835291602001916104b3565b820191906000526020600020905b81548152906001019060200180831161049657829003601f168201915b5050505050815260200160018201548152505090506040516020016104d7906111e2565b6040516020818303038152906040528051906020012081600001516040516020016105029190610c11565b60405160208183030381529060405280519060200120148015610529575060008160200151145b156105c2576001839080600181540180825580915050600190039060005260206000200160009091909190915090816105629190610e34565b50826000846040516105749190610c11565b908152602001604051809103902060000190816105919190610e34565b50600080846040516105a39190610c11565b90815260200160405180910390206001018190555060019150506105c8565b60009150505b919050565b60005b60018054905081101561068e576040518060200160405280600081525060006001838154811061060357610602610f06565b5b9060005260206000200160405161061a9190610fb8565b908152602001604051809103902060000190816106379190610e34565b506000806001838154811061064f5761064e610f06565b5b906000526020600020016040516106669190610fb8565b908152602001604051809103902060010181905550808061068690611174565b9150506105d0565b506001600061069d91906107e1565b565b6040516020016106ae906111e2565b604051602081830303815290604052805190602001206000826040516106d49190610c11565b90815260200160405180910390206000016040516020016106f59190610fb8565b604051602081830303815290604052805190602001200361074b576040517f08c379a000000000000000000000000000000000000000000000000000000000815260040161074290611254565b60405180910390fd5b600160008260405161075d9190610c11565b9081526020016040518091039020600101600082825461077d9190611274565b9250508190555050565b50805461079390610c57565b6000825580601f106107a557506107c4565b601f0160209004906000526020600020908101906107c39190610802565b5b50565b604051806040016040528060608152602001600081525090565b50805460008255906000526020600020908101906107ff919061081f565b50565b5b8082111561081b576000816000905550600101610803565b5090565b5b8082111561083f57600081816108369190610787565b50600101610820565b5090565b6000604051905090565b600080fd5b600080fd5b600080fd5b600080fd5b6000601f19601f8301169050919050565b7f4e487b7100000000000000000000000000000000000000000000000000000000600052604160045260246000fd5b6108aa82610861565b810181811067ffffffffffffffff821117156108c9576108c8610872565b5b80604052505050565b60006108dc610843565b90506108e882826108a1565b919050565b600067ffffffffffffffff82111561090857610907610872565b5b61091182610861565b9050602081019050919050565b82818337600083830152505050565b600061094061093b846108ed565b6108d2565b90508281526020810184848401111561095c5761095b61085c565b5b61096784828561091e565b509392505050565b600082601f83011261098457610983610857565b5b813561099484826020860161092d565b91505092915050565b6000602082840312156109b3576109b261084d565b5b600082013567ffffffffffffffff8111156109d1576109d0610852565b5b6109dd8482850161096f565b91505092915050565b600081519050919050565b600082825260208201905092915050565b6000819050602082019050919050565b600081519050919050565b600082825260208201905092915050565b60005b83811015610a4c578082015181840152602081019050610a31565b60008484015250505050565b6000610a6382610a12565b610a6d8185610a1d565b9350610a7d818560208601610a2e565b610a8681610861565b840191505092915050565b6000819050919050565b610aa481610a91565b82525050565b60006040830160008301518482036000860152610ac78282610a58565b9150506020830151610adc6020860182610a9b565b508091505092915050565b6000610af38383610aaa565b905092915050565b6000602082019050919050565b6000610b13826109e6565b610b1d81856109f1565b935083602082028501610b2f85610a02565b8060005b85811015610b6b5784840389528151610b4c8582610ae7565b9450610b5783610afb565b925060208a01995050600181019050610b33565b50829750879550505050505092915050565b60006020820190508181036000830152610b978184610b08565b905092915050565b60008115159050919050565b610bb481610b9f565b82525050565b6000602082019050610bcf6000830184610bab565b92915050565b600081905092915050565b6000610beb82610a12565b610bf58185610bd5565b9350610c05818560208601610a2e565b80840191505092915050565b6000610c1d8284610be0565b915081905092915050565b7f4e487b7100000000000000000000000000000000000000000000000000000000600052602260045260246000fd5b60006002820490506001821680610c6f57607f821691505b602082108103610c8257610c81610c28565b5b50919050565b60008190508160005260206000209050919050565b60006020601f8301049050919050565b600082821b905092915050565b600060088302610cea7fffffffffffffffffffffffffffffffffffffffffffffffffffffffffffffffff82610cad565b610cf48683610cad565b95508019841693508086168417925050509392505050565b6000819050919050565b6000610d31610d2c610d2784610a91565b610d0c565b610a91565b9050919050565b6000819050919050565b610d4b83610d16565b610d5f610d5782610d38565b848454610cba565b825550505050565b600090565b610d74610d67565b610d7f818484610d42565b505050565b5b81811015610da357610d98600082610d6c565b600181019050610d85565b5050565b601f821115610de857610db981610c88565b610dc284610c9d565b81016020851015610dd1578190505b610de5610ddd85610c9d565b830182610d84565b50505b505050565b600082821c905092915050565b6000610e0b60001984600802610ded565b1980831691505092915050565b6000610e248383610dfa565b9150826002028217905092915050565b610e3d82610a12565b67ffffffffffffffff811115610e5657610e55610872565b5b610e608254610c57565b610e6b828285610da7565b600060209050601f831160018114610e9e5760008415610e8c578287015190505b610e968582610e18565b865550610efe565b601f198416610eac86610c88565b60005b82811015610ed457848901518255600182019150602085019450602081019050610eaf565b86831015610ef15784890151610eed601f891682610dfa565b8355505b6001600288020188555050505b505050505050565b7f4e487b7100000000000000000000000000000000000000000000000000000000600052603260045260246000fd5b60008154610f4281610c57565b610f4c8186610bd5565b94506001821660008114610f675760018114610f7c57610faf565b60ff1983168652811515820286019350610faf565b610f8585610c88565b60005b83811015610fa757815481890152600182019150602081019050610f88565b838801955050505b50505092915050565b6000610fc48284610f35565b915081905092915050565b7f4e487b7100000000000000000000000000000000000000000000000000000000600052601160045260246000fd5b600061100982610a91565b915061101483610a91565b925082820390508181111561102c5761102b610fcf565b5b92915050565b60008154905061104181610c57565b9050919050565b60008190508160005260206000209050919050565b81810361106b575050611143565b61107482611032565b67ffffffffffffffff81111561108d5761108c610872565b5b6110978254610c57565b6110a2828285610da7565b6000601f8311600181146110d157600084156110bf578287015490505b6110c98582610e18565b86555061113c565b601f1984166110df87611048565b96506110ea86610c88565b60005b82811015611112578489015482556001820191506001850194506020810190506110ed565b8683101561112f578489015461112b601f891682610dfa565b8355505b6001600288020188555050505b5050505050505b565b7f4e487b7100000000000000000000000000000000000000000000000000000000600052603160045260246000fd5b600061117f82610a91565b91507fffffffffffffffffffffffffffffffffffffffffffffffffffffffffffffffff82036111b1576111b0610fcf565b5b600182019050919050565b50565b60006111cc600083610bd5565b91506111d7826111bc565b600082019050919050565b60006111ed826111bf565b9150819050919050565b600082825260208201905092915050565b7f496e76616c69642043616e646964617465000000000000000000000000000000600082015250565b600061123e6011836111f7565b915061124982611208565b602082019050919050565b6000602082019050818103600083015261126d81611231565b9050919050565b600061127f82610a91565b915061128a83610a91565b92508282019050808211156112a2576112a1610fcf565b5b9291505056fea26469706673582212208f66ebdbf7b9527d51d89e58bb58bf13138da0901780e198eb808d870048c4b064736f6c634300081200336080604052348015600f57600080fd5b50603f80601d6000396000f3fe6080604052600080fdfea264697066735822122040b254decf7266a3dc8f3053a1f26121e578e49d60a9b122fc2c8187a65950b264736f6c63430008120033",
  "immutableReferences": {},
  "source": "// SPDX-License-Identifier: MIT\r\npragma solidity ^0.8.0;\r\n\r\nimport \"./CandidateManager.sol\";\r\nimport \"./ParticipantManager.sol\";\r\n\r\ncontract VotingEvent {\r\n    CandidateManager private candidateManager;\r\n    ParticipantManager private participantManager;\r\n    address private host;\r\n\r\n    constructor(address _host) {\r\n        candidateManager = new CandidateManager();\r\n        participantManager = new ParticipantManager();\r\n        host = _host;\r\n    }\r\n\r\n    function getCandidateManager() public view returns (CandidateManager) {\r\n        return candidateManager;\r\n    }\r\n\r\n    function getParticipantManager() public view returns (ParticipantManager) {\r\n        return participantManager;\r\n    }\r\n\r\n    function getHost() public view returns (address) {\r\n        return host;\r\n    }\r\n}",
  "sourcePath": "D:\\BlockChain\\KL-Mini-Hack\\truffle-project\\contracts\\VoteEvent.sol",
  "compiler": {
    "name": "solc",
    "version": "0.8.18+commit.87f61d96.Emscripten.clang"
  },
  "schemaVersion": "3.4.11",
  "updatedAt": "2023-02-16T13:24:04.459Z",
  "devdoc": {
    "kind": "dev",
    "methods": {},
    "version": 1
  },
  "userdoc": {
    "kind": "user",
    "methods": {},
    "version": 1
  }
}