{
  "contractName": "VotingEvent",
  "abi": [
    {
      "inputs": [
        {
          "internalType": "address",
          "name": "_host",
          "type": "address"
        },
        {
          "internalType": "contract IHasher",
          "name": "_hasher",
          "type": "address"
        }
      ],
      "stateMutability": "nonpayable",
      "type": "constructor"
    },
    {
      "inputs": [],
      "name": "getCandidateManager",
      "outputs": [
        {
          "internalType": "contract CandidateManager",
          "name": "",
          "type": "address"
        }
      ],
      "stateMutability": "view",
      "type": "function",
      "constant": true
    },
    {
      "inputs": [],
      "name": "getParticipantManager",
      "outputs": [
        {
          "internalType": "contract ParticipantManager",
          "name": "",
          "type": "address"
        }
      ],
      "stateMutability": "view",
      "type": "function",
      "constant": true
    },
    {
      "inputs": [],
      "name": "getHost",
      "outputs": [
        {
          "internalType": "address",
          "name": "",
          "type": "address"
        }
      ],
      "stateMutability": "view",
      "type": "function",
      "constant": true
    },
    {
      "inputs": [],
      "name": "getIsCurrentlyVoting",
      "outputs": [
        {
          "internalType": "bool",
          "name": "",
          "type": "bool"
        }
      ],
      "stateMutability": "view",
      "type": "function",
      "constant": true
    },
    {
      "inputs": [
        {
          "internalType": "bool",
          "name": "_isCurrentlyVoting",
          "type": "bool"
        }
      ],
      "name": "setIsCurrentlyVoting",
      "outputs": [],
      "stateMutability": "nonpayable",
      "type": "function"
    }
  ],
  "bytecode": "0x60806040523480156200001157600080fd5b50604051620071933803806200719383398181016040528101906200003791906200026c565b6040516200004590620001a1565b604051809103906000f08015801562000062573d6000803e3d6000fd5b506000806101000a81548173ffffffffffffffffffffffffffffffffffffffff021916908373ffffffffffffffffffffffffffffffffffffffff16021790555060008054906101000a900473ffffffffffffffffffffffffffffffffffffffff1681604051620000d290620001af565b620000df92919062000343565b604051809103906000f080158015620000fc573d6000803e3d6000fd5b50600160006101000a81548173ffffffffffffffffffffffffffffffffffffffff021916908373ffffffffffffffffffffffffffffffffffffffff16021790555081600260006101000a81548173ffffffffffffffffffffffffffffffffffffffff021916908373ffffffffffffffffffffffffffffffffffffffff1602179055506000600260146101000a81548160ff021916908315150217905550505062000370565b61155380620006fd83390190565b6155438062001c5083390190565b600080fd5b600073ffffffffffffffffffffffffffffffffffffffff82169050919050565b6000620001ef82620001c2565b9050919050565b6200020181620001e2565b81146200020d57600080fd5b50565b6000815190506200022181620001f6565b92915050565b60006200023482620001e2565b9050919050565b620002468162000227565b81146200025257600080fd5b50565b60008151905062000266816200023b565b92915050565b60008060408385031215620002865762000285620001bd565b5b6000620002968582860162000210565b9250506020620002a98582860162000255565b9150509250929050565b6000819050919050565b6000620002de620002d8620002d284620001c2565b620002b3565b620001c2565b9050919050565b6000620002f282620002bd565b9050919050565b60006200030682620002e5565b9050919050565b6200031881620002f9565b82525050565b60006200032b82620002e5565b9050919050565b6200033d816200031e565b82525050565b60006040820190506200035a60008301856200030d565b62000369602083018462000332565b9392505050565b61037d80620003806000396000f3fe608060405234801561001057600080fd5b50600436106100575760003560e01c806320bc44251461005c5780637d4249bf1461007a578063a202915814610098578063b5f07d2f146100b6578063e7db1690146100d4575b600080fd5b6100646100f0565b60405161007191906101e2565b60405180910390f35b61008261011a565b60405161008f9190610218565b60405180910390f35b6100a0610131565b6040516100ad9190610292565b60405180910390f35b6100be61015b565b6040516100cb91906102ce565b60405180910390f35b6100ee60048036038101906100e9919061031a565b610184565b005b6000600260009054906101000a900473ffffffffffffffffffffffffffffffffffffffff16905090565b6000600260149054906101000a900460ff16905090565b6000600160009054906101000a900473ffffffffffffffffffffffffffffffffffffffff16905090565b60008060009054906101000a900473ffffffffffffffffffffffffffffffffffffffff16905090565b80600260146101000a81548160ff02191690831515021790555050565b600073ffffffffffffffffffffffffffffffffffffffff82169050919050565b60006101cc826101a1565b9050919050565b6101dc816101c1565b82525050565b60006020820190506101f760008301846101d3565b92915050565b60008115159050919050565b610212816101fd565b82525050565b600060208201905061022d6000830184610209565b92915050565b6000819050919050565b600061025861025361024e846101a1565b610233565b6101a1565b9050919050565b600061026a8261023d565b9050919050565b600061027c8261025f565b9050919050565b61028c81610271565b82525050565b60006020820190506102a76000830184610283565b92915050565b60006102b88261025f565b9050919050565b6102c8816102ad565b82525050565b60006020820190506102e360008301846102bf565b92915050565b600080fd5b6102f7816101fd565b811461030257600080fd5b50565b600081359050610314816102ee565b92915050565b6000602082840312156103305761032f6102e9565b5b600061033e84828501610305565b9150509291505056fea264697066735822122061785e627935e00d187bef042dafc442453ff72cac3c1f15cb0c74fa795ae7e764736f6c63430008110033608060405234801561001057600080fd5b50611533806100206000396000f3fe608060405234801561001057600080fd5b50600436106100625760003560e01c806301c9605b1461006757806306a49fce14610083578063462e91ec146100a15780635c179f7e146100bd5780637e797dee146100c75780639192f1c8146100f7575b600080fd5b610081600480360381019061007c9190610b1a565b610113565b005b61008b61029b565b6040516100989190610cfa565b60405180910390f35b6100bb60048036038101906100b69190610b1a565b610425565b005b6100c56106a7565b005b6100e160048036038101906100dc9190610b1a565b610779565b6040516100ee9190610d37565b60405180910390f35b610111600480360381019061010c9190610b1a565b61081c565b005b604051806020016040528060008152506000826040516101339190610d8e565b908152602001604051809103902060000190816101509190610fb1565b50600080826040516101629190610d8e565b90815260200160405180910390206001018190555060005b60018054905081101561029757816040516020016101989190610d8e565b60405160208183030381529060405280519060200120600182815481106101c2576101c1611083565b5b906000526020600020016040516020016101dc9190611135565b6040516020818303038152906040528051906020012003610284576001808080549050610209919061117b565b8154811061021a57610219611083565b5b906000526020600020016001828154811061023857610237611083565b5b90600052602060002001908161024e91906111da565b506001805480610261576102606112c2565b5b60019003818190600052602060002001600061027d9190610904565b9055610297565b808061028f906112f1565b91505061017a565b5050565b6060600060018054905067ffffffffffffffff8111156102be576102bd6109ef565b5b6040519080825280602002602001820160405280156102f757816020015b6102e4610944565b8152602001906001900390816102dc5790505b50905060005b60018054905081101561041d576000600182815481106103205761031f611083565b5b906000526020600020016040516103379190611135565b908152602001604051809103902060405180604001604052908160008201805461036090610dd4565b80601f016020809104026020016040519081016040528092919081815260200182805461038c90610dd4565b80156103d95780601f106103ae576101008083540402835291602001916103d9565b820191906000526020600020905b8154815290600101906020018083116103bc57829003601f168201915b505050505081526020016001820154815250508282815181106103ff576103fe611083565b5b60200260200101819052508080610415906112f1565b9150506102fd565b508091505090565b600080826040516104369190610d8e565b908152602001604051809103902060405180604001604052908160008201805461045f90610dd4565b80601f016020809104026020016040519081016040528092919081815260200182805461048b90610dd4565b80156104d85780601f106104ad576101008083540402835291602001916104d8565b820191906000526020600020905b8154815290600101906020018083116104bb57829003601f168201915b5050505050815260200160018201548152505090506040516020016104fc9061135f565b60405160208183030381529060405280519060200120826040516020016105239190610d8e565b6040516020818303038152906040528051906020012003610579576040517f08c379a0000000000000000000000000000000000000000000000000000000008152600401610570906113d1565b60405180910390fd5b6040516020016105889061135f565b6040516020818303038152906040528051906020012081600001516040516020016105b39190610d8e565b604051602081830303815290604052805190602001201480156105da575060008160200151145b610619576040517f08c379a00000000000000000000000000000000000000000000000000000000081526004016106109061143d565b60405180910390fd5b60018290806001815401808255809150506001900390600052602060002001600090919091909150908161064d9190610fb1565b508160008360405161065f9190610d8e565b9081526020016040518091039020600001908161067c9190610fb1565b506000808360405161068e9190610d8e565b9081526020016040518091039020600101819055505050565b60005b60018054905081101561076857604051806020016040528060008152506000600183815481106106dd576106dc611083565b5b906000526020600020016040516106f49190611135565b908152602001604051809103902060000190816107119190610fb1565b506000806001838154811061072957610728611083565b5b906000526020600020016040516107409190611135565b9081526020016040518091039020600101819055508080610760906112f1565b9150506106aa565b5060016000610777919061095e565b565b600060405160200161078a9061135f565b604051602081830303815290604052805190602001206000836040516107b09190610d8e565b90815260200160405180910390206000016040516020016107d19190611135565b604051602081830303815290604052805190602001201415806108155750600080836040516108009190610d8e565b90815260200160405180910390206001015414155b9050919050565b60405160200161082b9061135f565b604051602081830303815290604052805190602001206000826040516108519190610d8e565b90815260200160405180910390206000016040516020016108729190611135565b60405160208183030381529060405280519060200120036108c8576040517f08c379a00000000000000000000000000000000000000000000000000000000081526004016108bf906114a9565b60405180910390fd5b60016000826040516108da9190610d8e565b908152602001604051809103902060010160008282546108fa91906114c9565b9250508190555050565b50805461091090610dd4565b6000825580601f106109225750610941565b601f016020900490600052602060002090810190610940919061097f565b5b50565b604051806040016040528060608152602001600081525090565b508054600082559060005260206000209081019061097c919061099c565b50565b5b80821115610998576000816000905550600101610980565b5090565b5b808211156109bc57600081816109b39190610904565b5060010161099d565b5090565b6000604051905090565b600080fd5b600080fd5b600080fd5b600080fd5b6000601f19601f8301169050919050565b7f4e487b7100000000000000000000000000000000000000000000000000000000600052604160045260246000fd5b610a27826109de565b810181811067ffffffffffffffff82111715610a4657610a456109ef565b5b80604052505050565b6000610a596109c0565b9050610a658282610a1e565b919050565b600067ffffffffffffffff821115610a8557610a846109ef565b5b610a8e826109de565b9050602081019050919050565b82818337600083830152505050565b6000610abd610ab884610a6a565b610a4f565b905082815260208101848484011115610ad957610ad86109d9565b5b610ae4848285610a9b565b509392505050565b600082601f830112610b0157610b006109d4565b5b8135610b11848260208601610aaa565b91505092915050565b600060208284031215610b3057610b2f6109ca565b5b600082013567ffffffffffffffff811115610b4e57610b4d6109cf565b5b610b5a84828501610aec565b91505092915050565b600081519050919050565b600082825260208201905092915050565b6000819050602082019050919050565b600081519050919050565b600082825260208201905092915050565b60005b83811015610bc9578082015181840152602081019050610bae565b60008484015250505050565b6000610be082610b8f565b610bea8185610b9a565b9350610bfa818560208601610bab565b610c03816109de565b840191505092915050565b6000819050919050565b610c2181610c0e565b82525050565b60006040830160008301518482036000860152610c448282610bd5565b9150506020830151610c596020860182610c18565b508091505092915050565b6000610c708383610c27565b905092915050565b6000602082019050919050565b6000610c9082610b63565b610c9a8185610b6e565b935083602082028501610cac85610b7f565b8060005b85811015610ce85784840389528151610cc98582610c64565b9450610cd483610c78565b925060208a01995050600181019050610cb0565b50829750879550505050505092915050565b60006020820190508181036000830152610d148184610c85565b905092915050565b60008115159050919050565b610d3181610d1c565b82525050565b6000602082019050610d4c6000830184610d28565b92915050565b600081905092915050565b6000610d6882610b8f565b610d728185610d52565b9350610d82818560208601610bab565b80840191505092915050565b6000610d9a8284610d5d565b915081905092915050565b7f4e487b7100000000000000000000000000000000000000000000000000000000600052602260045260246000fd5b60006002820490506001821680610dec57607f821691505b602082108103610dff57610dfe610da5565b5b50919050565b60008190508160005260206000209050919050565b60006020601f8301049050919050565b600082821b905092915050565b600060088302610e677fffffffffffffffffffffffffffffffffffffffffffffffffffffffffffffffff82610e2a565b610e718683610e2a565b95508019841693508086168417925050509392505050565b6000819050919050565b6000610eae610ea9610ea484610c0e565b610e89565b610c0e565b9050919050565b6000819050919050565b610ec883610e93565b610edc610ed482610eb5565b848454610e37565b825550505050565b600090565b610ef1610ee4565b610efc818484610ebf565b505050565b5b81811015610f2057610f15600082610ee9565b600181019050610f02565b5050565b601f821115610f6557610f3681610e05565b610f3f84610e1a565b81016020851015610f4e578190505b610f62610f5a85610e1a565b830182610f01565b50505b505050565b600082821c905092915050565b6000610f8860001984600802610f6a565b1980831691505092915050565b6000610fa18383610f77565b9150826002028217905092915050565b610fba82610b8f565b67ffffffffffffffff811115610fd357610fd26109ef565b5b610fdd8254610dd4565b610fe8828285610f24565b600060209050601f83116001811461101b5760008415611009578287015190505b6110138582610f95565b86555061107b565b601f19841661102986610e05565b60005b828110156110515784890151825560018201915060208501945060208101905061102c565b8683101561106e578489015161106a601f891682610f77565b8355505b6001600288020188555050505b505050505050565b7f4e487b7100000000000000000000000000000000000000000000000000000000600052603260045260246000fd5b600081546110bf81610dd4565b6110c98186610d52565b945060018216600081146110e457600181146110f95761112c565b60ff198316865281151582028601935061112c565b61110285610e05565b60005b8381101561112457815481890152600182019150602081019050611105565b838801955050505b50505092915050565b600061114182846110b2565b915081905092915050565b7f4e487b7100000000000000000000000000000000000000000000000000000000600052601160045260246000fd5b600061118682610c0e565b915061119183610c0e565b92508282039050818111156111a9576111a861114c565b5b92915050565b6000815490506111be81610dd4565b9050919050565b60008190508160005260206000209050919050565b8181036111e85750506112c0565b6111f1826111af565b67ffffffffffffffff81111561120a576112096109ef565b5b6112148254610dd4565b61121f828285610f24565b6000601f83116001811461124e576000841561123c578287015490505b6112468582610f95565b8655506112b9565b601f19841661125c876111c5565b965061126786610e05565b60005b8281101561128f5784890154825560018201915060018501945060208101905061126a565b868310156112ac57848901546112a8601f891682610f77565b8355505b6001600288020188555050505b5050505050505b565b7f4e487b7100000000000000000000000000000000000000000000000000000000600052603160045260246000fd5b60006112fc82610c0e565b91507fffffffffffffffffffffffffffffffffffffffffffffffffffffffffffffffff820361132e5761132d61114c565b5b600182019050919050565b50565b6000611349600083610d52565b915061135482611339565b600082019050919050565b600061136a8261133c565b9150819050919050565b600082825260208201905092915050565b7f4e616d652063616e6e6f7420626520626c616e6b000000000000000000000000600082015250565b60006113bb601483611374565b91506113c682611385565b602082019050919050565b600060208201905081810360008301526113ea816113ae565b9050919050565b7f4e616d6520616c72656164792065786973740000000000000000000000000000600082015250565b6000611427601283611374565b9150611432826113f1565b602082019050919050565b600060208201905081810360008301526114568161141a565b9050919050565b7f496e76616c69642043616e646964617465000000000000000000000000000000600082015250565b6000611493601183611374565b915061149e8261145d565b602082019050919050565b600060208201905081810360008301526114c281611486565b9050919050565b60006114d482610c0e565b91506114df83610c0e565b92508282019050808211156114f7576114f661114c565b5b9291505056fea2646970667358221220b82a644a1b0b5c56c82a6901ae8691208e6611da694d472d4a6e2d5ff940a48b64736f6c6343000811003360c06040526000600360006101000a81548163ffffffff021916908363ffffffff1602179055506000600360046101000a81548163ffffffff021916908363ffffffff1602179055503480156200005557600080fd5b50604051620055433803806200554383398181016040528101906200007b919062000a6b565b6014816040516200008c906200099a565b604051809103906000f080158015620000a9573d6000803e3d6000fd5b50828260008263ffffffff1611620000f8576040517f08c379a0000000000000000000000000000000000000000000000000000000008152600401620000ef9062000b39565b60405180910390fd5b60208263ffffffff161062000144576040517f08c379a00000000000000000000000000000000000000000000000000000000081526004016200013b9062000bab565b60405180910390fd5b816000806101000a81548163ffffffff021916908363ffffffff1602179055508073ffffffffffffffffffffffffffffffffffffffff1660808173ffffffffffffffffffffffffffffffffffffffff168152505060005b8263ffffffff168163ffffffff161015620001fa57620001c78163ffffffff16620002b960201b60201c565b600160008363ffffffff168152602001908152602001600020819055508080620001f19062000c0c565b9150506200019b565b50620002206001836200020e919062000c3d565b63ffffffff16620002b960201b60201c565b600260008081526020019081526020016000208190555050508073ffffffffffffffffffffffffffffffffffffffff1660a08173ffffffffffffffffffffffffffffffffffffffff168152505050505081600760006101000a81548173ffffffffffffffffffffffffffffffffffffffff021916908373ffffffffffffffffffffffffffffffffffffffff160217905550505062000cee565b6000808203620002ef577f2fe54c60d3acabf3343a35b6eba15db4821b340f76e741e2249685ed4899af6c60001b905062000995565b6001820362000324577f256a6135777eee2fd26f54b8b7037a25439d5235caee224154186d2b8a52e31d60001b905062000995565b6002820362000359577f1151949895e82ab19924de92c40a3d6f7bcb60d92b00504b8199613683f0c20060001b905062000995565b600382036200038e577f20121ee811489ff8d61f09fb89e313f14959a0f28bb428a20dba6b0b068b3bdb60001b905062000995565b60048203620003c3577f0a89ca6ffa14cc462cfedb842c30ed221a50a3d6bf022a6a57dc82ab24c157c960001b905062000995565b60058203620003f8577f24ca05c2b5cd42e890d6be94c68d0689f4f21c9cec9c0f13fe41d566dfb5495960001b905062000995565b600682036200042d577f1ccb97c932565a92c60156bdba2d08f3bf1377464e025cee765679e604a7315c60001b905062000995565b6007820362000462577f19156fbd7d1a8bf5cba8909367de1b624534ebab4f0f79e003bccdd1b182bdb460001b905062000995565b6008820362000497577f261af8c1f0912e465744641409f622d466c3920ac6e5ff37e36604cb11dfff8060001b905062000995565b60098203620004cb577e58459724ff6ca5a1652fcbc3e82b93895cf08e975b19beab3f54c217d1c00760001b905062000995565b600a820362000500577f1f04ef20dee48d39984d8eabe768a70eafa6310ad20849d4573c3c40c2ad1e3060001b905062000995565b600b820362000535577f1bea3dec5dab51567ce7e200a30f7ba6d4276aeaa53e2686f962a46c66d511e560001b905062000995565b600c82036200056a577f0ee0f941e2da4b9e31c3ca97a40d8fa9ce68d97c084177071b3cb46cd3372f0f60001b905062000995565b600d82036200059f577f1ca9503e8935884501bbaf20be14eb4c46b89772c97b96e3b2ebf3a36a948bbd60001b905062000995565b600e8203620005d4577f133a80e30697cd55d8f7d4b0965b7be24057ba5dc3da898ee2187232446cb10860001b905062000995565b600f820362000609577f13e6d8fc88839ed76e182c2a779af5b2c0da9dd18c90427a644f7e148a6253b660001b905062000995565b601082036200063e577f1eb16b057a477f4bc8f572ea6bee39561098f78f15bfb3699dcbb7bd8db6185460001b905062000995565b6011820362000673577f0da2cb16a1ceaabf1c16b838f7a9e3f2a3a3088d9e0a6debaa748114620696ea60001b905062000995565b60128203620006a8577f24a3b3d822420b14b5d8cb6c28a574f01e98ea9e940551d2ebd75cee12649f9d60001b905062000995565b60138203620006dd577f198622acbd783d1b0d9064105b1fc8e4d8889de95c4c519b3f635809fe6afc0560001b905062000995565b6014820362000712577f29d7ed391256ccc3ea596c86e933b89ff339d25ea8ddced975ae2fe30b5296d460001b905062000995565b6015820362000747577f19be59f2f0413ce78c0c3703a3a5451b1d7f39629fa33abd11548a76065b296760001b905062000995565b601682036200077c577f1ff3f61797e538b70e619310d33f2a063e7eb59104e112e95738da1254dc345360001b905062000995565b60178203620007b1577f10c16ae9959cf8358980d9dd9616e48228737310a10e2b6b731c1a548f036c4860001b905062000995565b60188203620007e6577f0ba433a63174a90ac20992e75e3095496812b652685b5e1a2eae0b1bf4e8fcd160001b905062000995565b601982036200081b577f019ddb9df2bc98d987d0dfeca9d2b643deafab8f7036562e627c3667266a044c60001b905062000995565b601a820362000850577f2d3c88b23175c5a5565db928414c66d1912b11acf974b2e644caaac04739ce9960001b905062000995565b601b820362000885577f2eab55f6ae4e66e32c5189eed5c470840863445760f5ed7e7b69b2a62600f35460001b905062000995565b601c8203620008b9577e2df37a2642621802383cf952bf4dd1f32e05433beeb1fd41031fb7eace979d60001b905062000995565b601d8203620008ee577f104aeb41435db66c3e62feccc1d6f5d98d0a0ed75d1374db457cf462e3a1f42760001b905062000995565b601e820362000923577f1f3c6fd858e9a7d4b0d1f38e256a09d81d5a5e3c963987e2d4b814cfab7c6ebb60001b905062000995565b601f820362000958577f2c7a07d20dff79d01fecedc1134284a8d08436606c93693b67e333f671bf69cc60001b905062000995565b6040517f08c379a00000000000000000000000000000000000000000000000000000000081526004016200098c9062000ccc565b60405180910390fd5b919050565b612111806200343283390190565b600080fd5b600073ffffffffffffffffffffffffffffffffffffffff82169050919050565b6000620009da82620009ad565b9050919050565b6000620009ee82620009cd565b9050919050565b62000a0081620009e1565b811462000a0c57600080fd5b50565b60008151905062000a2081620009f5565b92915050565b600062000a3382620009cd565b9050919050565b62000a458162000a26565b811462000a5157600080fd5b50565b60008151905062000a658162000a3a565b92915050565b6000806040838503121562000a855762000a84620009a8565b5b600062000a958582860162000a0f565b925050602062000aa88582860162000a54565b9150509250929050565b600082825260208201905092915050565b7f5f6c6576656c732073686f756c642062652067726561746572207468616e207a60008201527f65726f0000000000000000000000000000000000000000000000000000000000602082015250565b600062000b2160238362000ab2565b915062000b2e8262000ac3565b604082019050919050565b6000602082019050818103600083015262000b548162000b12565b9050919050565b7f5f6c6576656c732073686f756c64206265206c657373207468616e2033320000600082015250565b600062000b93601e8362000ab2565b915062000ba08262000b5b565b602082019050919050565b6000602082019050818103600083015262000bc68162000b84565b9050919050565b7f4e487b7100000000000000000000000000000000000000000000000000000000600052601160045260246000fd5b600063ffffffff82169050919050565b600062000c198262000bfc565b915063ffffffff820362000c325762000c3162000bcd565b5b600182019050919050565b600062000c4a8262000bfc565b915062000c578362000bfc565b9250828203905063ffffffff81111562000c765762000c7562000bcd565b5b92915050565b7f496e646578206f7574206f6620626f756e647300000000000000000000000000600082015250565b600062000cb460138362000ab2565b915062000cc18262000c7c565b602082019050919050565b6000602082019050818103600083015262000ce78162000ca5565b9050919050565b60805160a05161270962000d2960003960008181610470015261126301526000818161071c015281816107f6015261109001526127096000f3fe608060405234801561001057600080fd5b50600436106101165760003560e01c806390eeb02b116100a2578063e829558811610071578063e8295588146102f7578063ec73295914610327578063ed33639f14610345578063f178e47c14610363578063fc7e9c6f1461039357610116565b806390eeb02b1461026d578063ba70f7571461028b578063c2b40ae4146102a9578063cd87a3b4146102d957610116565b8063414a37ba116100e9578063414a37ba146101a15780634ecf518b146101bf5780635bb93995146101dd5780636d9833e31461020d578063839df9451461023d57610116565b80631407beb81461011b5780632997e86b146101375780632b7ac3f3146101675780633e89088614610185575b600080fd5b610135600480360381019061013091906115de565b6103b1565b005b610151600480360381019061014c9190611654565b61044e565b60405161015e919061169c565b60405180910390f35b61016f61046e565b60405161017c9190611736565b60405180910390f35b61019f600480360381019061019a91906119fe565b610492565b005b6101a9610615565b6040516101b69190611ab8565b60405180910390f35b6101c7610639565b6040516101d49190611af2565b60405180910390f35b6101f760048036038101906101f291906115de565b61064d565b6040516102049190611b1c565b60405180910390f35b61022760048036038101906102229190611654565b6108a8565b604051610234919061169c565b60405180910390f35b61025760048036038101906102529190611654565b610945565b604051610264919061169c565b60405180910390f35b610275610965565b6040516102829190611af2565b60405180910390f35b61029361097b565b6040516102a09190611b1c565b60405180910390f35b6102c360048036038101906102be9190611b37565b6109ae565b6040516102d09190611b1c565b60405180910390f35b6102e16109c6565b6040516102ee9190611af2565b60405180910390f35b610311600480360381019061030c9190611b37565b6109cb565b60405161031e9190611b1c565b60405180910390f35b61032f61106a565b60405161033c9190611ab8565b60405180910390f35b61034d61108e565b60405161035a9190611b85565b60405180910390f35b61037d60048036038101906103789190611b37565b6110b2565b60405161038a9190611b1c565b60405180910390f35b61039b6110ca565b6040516103a89190611af2565b60405180910390f35b6006600083815260200190815260200160002060009054906101000a900460ff1615610412576040517f08c379a000000000000000000000000000000000000000000000000000000000815260040161040990611bfd565b60405180910390fd5b61041e8160001b6110e0565b60016006600084815260200190815260200160002060006101000a81548160ff0219169083151502179055505050565b60046020528060005260406000206000915054906101000a900460ff1681565b7f000000000000000000000000000000000000000000000000000000000000000081565b600760009054906101000a900473ffffffffffffffffffffffffffffffffffffffff1673ffffffffffffffffffffffffffffffffffffffff16637e797dee876040518263ffffffff1660e01b81526004016104ed9190611c8b565b602060405180830381865afa15801561050a573d6000803e3d6000fd5b505050506040513d601f19601f8201168201806040525081019061052e9190611cd9565b61056d576040517f08c379a000000000000000000000000000000000000000000000000000000000815260040161056490611d52565b60405180910390fd5b6105808560001b8560001b8585856111b8565b600760009054906101000a900473ffffffffffffffffffffffffffffffffffffffff1673ffffffffffffffffffffffffffffffffffffffff16639192f1c8876040518263ffffffff1660e01b81526004016105db9190611c8b565b600060405180830381600087803b1580156105f557600080fd5b505af1158015610609573d6000803e3d6000fd5b50505050505050505050565b7f30644e72e131a029b85045b68181585d2833e84879b9709143e1f593f000000181565b60008054906101000a900463ffffffff1681565b60007f30644e72e131a029b85045b68181585d2833e84879b9709143e1f593f000000183106106b1576040517f08c379a00000000000000000000000000000000000000000000000000000000081526004016106a890611dbe565b60405180910390fd5b7f30644e72e131a029b85045b68181585d2833e84879b9709143e1f593f00000018210610713576040517f08c379a000000000000000000000000000000000000000000000000000000000815260040161070a90611e50565b60405180910390fd5b600083905060007f000000000000000000000000000000000000000000000000000000000000000073ffffffffffffffffffffffffffffffffffffffff16633f1a1187838360006040518463ffffffff1660e01b815260040161077893929190611eab565b6040805180830381865afa158015610794573d6000803e3d6000fd5b505050506040513d601f19601f820116820180604052508101906107b89190611ef7565b80925081935050507f30644e72e131a029b85045b68181585d2833e84879b9709143e1f593f0000001806107ef576107ee611f37565b5b84830891507f000000000000000000000000000000000000000000000000000000000000000073ffffffffffffffffffffffffffffffffffffffff16633f1a1187838360006040518463ffffffff1660e01b815260040161085293929190611eab565b6040805180830381865afa15801561086e573d6000803e3d6000fd5b505050506040513d601f19601f820116820180604052508101906108929190611ef7565b80925081935050508160001b9250505092915050565b60008060001b82036108bd5760009050610940565b6000600360009054906101000a900463ffffffff16905060008190505b600260008263ffffffff16815260200190815260200160002054840361090557600192505050610940565b60008163ffffffff160361091857601e90505b808061092390611f95565b9150508163ffffffff168163ffffffff16036108da576000925050505b919050565b60056020528060005260406000206000915054906101000a900460ff1681565b600360009054906101000a900463ffffffff1681565b600060026000600360009054906101000a900463ffffffff1663ffffffff16815260200190815260200160002054905090565b60026020528060005260406000206000915090505481565b601e81565b60008082036109ff577f2fe54c60d3acabf3343a35b6eba15db4821b340f76e741e2249685ed4899af6c60001b9050611065565b60018203610a32577f256a6135777eee2fd26f54b8b7037a25439d5235caee224154186d2b8a52e31d60001b9050611065565b60028203610a65577f1151949895e82ab19924de92c40a3d6f7bcb60d92b00504b8199613683f0c20060001b9050611065565b60038203610a98577f20121ee811489ff8d61f09fb89e313f14959a0f28bb428a20dba6b0b068b3bdb60001b9050611065565b60048203610acb577f0a89ca6ffa14cc462cfedb842c30ed221a50a3d6bf022a6a57dc82ab24c157c960001b9050611065565b60058203610afe577f24ca05c2b5cd42e890d6be94c68d0689f4f21c9cec9c0f13fe41d566dfb5495960001b9050611065565b60068203610b31577f1ccb97c932565a92c60156bdba2d08f3bf1377464e025cee765679e604a7315c60001b9050611065565b60078203610b64577f19156fbd7d1a8bf5cba8909367de1b624534ebab4f0f79e003bccdd1b182bdb460001b9050611065565b60088203610b97577f261af8c1f0912e465744641409f622d466c3920ac6e5ff37e36604cb11dfff8060001b9050611065565b60098203610bc9577e58459724ff6ca5a1652fcbc3e82b93895cf08e975b19beab3f54c217d1c00760001b9050611065565b600a8203610bfc577f1f04ef20dee48d39984d8eabe768a70eafa6310ad20849d4573c3c40c2ad1e3060001b9050611065565b600b8203610c2f577f1bea3dec5dab51567ce7e200a30f7ba6d4276aeaa53e2686f962a46c66d511e560001b9050611065565b600c8203610c62577f0ee0f941e2da4b9e31c3ca97a40d8fa9ce68d97c084177071b3cb46cd3372f0f60001b9050611065565b600d8203610c95577f1ca9503e8935884501bbaf20be14eb4c46b89772c97b96e3b2ebf3a36a948bbd60001b9050611065565b600e8203610cc8577f133a80e30697cd55d8f7d4b0965b7be24057ba5dc3da898ee2187232446cb10860001b9050611065565b600f8203610cfb577f13e6d8fc88839ed76e182c2a779af5b2c0da9dd18c90427a644f7e148a6253b660001b9050611065565b60108203610d2e577f1eb16b057a477f4bc8f572ea6bee39561098f78f15bfb3699dcbb7bd8db6185460001b9050611065565b60118203610d61577f0da2cb16a1ceaabf1c16b838f7a9e3f2a3a3088d9e0a6debaa748114620696ea60001b9050611065565b60128203610d94577f24a3b3d822420b14b5d8cb6c28a574f01e98ea9e940551d2ebd75cee12649f9d60001b9050611065565b60138203610dc7577f198622acbd783d1b0d9064105b1fc8e4d8889de95c4c519b3f635809fe6afc0560001b9050611065565b60148203610dfa577f29d7ed391256ccc3ea596c86e933b89ff339d25ea8ddced975ae2fe30b5296d460001b9050611065565b60158203610e2d577f19be59f2f0413ce78c0c3703a3a5451b1d7f39629fa33abd11548a76065b296760001b9050611065565b60168203610e60577f1ff3f61797e538b70e619310d33f2a063e7eb59104e112e95738da1254dc345360001b9050611065565b60178203610e93577f10c16ae9959cf8358980d9dd9616e48228737310a10e2b6b731c1a548f036c4860001b9050611065565b60188203610ec6577f0ba433a63174a90ac20992e75e3095496812b652685b5e1a2eae0b1bf4e8fcd160001b9050611065565b60198203610ef9577f019ddb9df2bc98d987d0dfeca9d2b643deafab8f7036562e627c3667266a044c60001b9050611065565b601a8203610f2c577f2d3c88b23175c5a5565db928414c66d1912b11acf974b2e644caaac04739ce9960001b9050611065565b601b8203610f5f577f2eab55f6ae4e66e32c5189eed5c470840863445760f5ed7e7b69b2a62600f35460001b9050611065565b601c8203610f91577e2df37a2642621802383cf952bf4dd1f32e05433beeb1fd41031fb7eace979d60001b9050611065565b601d8203610fc4577f104aeb41435db66c3e62feccc1d6f5d98d0a0ed75d1374db457cf462e3a1f42760001b9050611065565b601e8203610ff7577f1f3c6fd858e9a7d4b0d1f38e256a09d81d5a5e3c963987e2d4b814cfab7c6ebb60001b9050611065565b601f820361102a577f2c7a07d20dff79d01fecedc1134284a8d08436606c93693b67e333f671bf69cc60001b9050611065565b6040517f08c379a000000000000000000000000000000000000000000000000000000000815260040161105c9061200a565b60405180910390fd5b919050565b7f2fe54c60d3acabf3343a35b6eba15db4821b340f76e741e2249685ed4899af6c81565b7f000000000000000000000000000000000000000000000000000000000000000081565b60016020528060005260406000206000915090505481565b600360049054906101000a900463ffffffff1681565b6005600082815260200190815260200160002060009054906101000a900460ff1615611141576040517f08c379a00000000000000000000000000000000000000000000000000000000081526004016111389061209c565b60405180910390fd5b60016005600083815260200190815260200160002060006101000a81548160ff02191690831515021790555060006111788261138f565b9050817f401999886e5f90a91b92a0bfb7e2d48f714651a4d1c929bb3a753525ba066b9182426040516111ac9291906120bc565b60405180910390a25050565b6004600086815260200190815260200160002060009054906101000a900460ff1615611219576040517f08c379a000000000000000000000000000000000000000000000000000000000815260040161121090612131565b60405180910390fd5b611222846108a8565b611261576040517f08c379a00000000000000000000000000000000000000000000000000000000081526004016112589061219d565b60405180910390fd5b7f000000000000000000000000000000000000000000000000000000000000000073ffffffffffffffffffffffffffffffffffffffff1663f5c9d69e84848460405180604001604052808b60001c81526020018a60001c8152506040518563ffffffff1660e01b81526004016112da9493929190612366565b6020604051808303816000875af11580156112f9573d6000803e3d6000fd5b505050506040513d601f19601f8201168201806040525081019061131d9190611cd9565b61135c576040517f08c379a0000000000000000000000000000000000000000000000000000000008152600401611353906123f9565b60405180910390fd5b60016004600087815260200190815260200160002060006101000a81548160ff0219169083151502179055505050505050565b600080600360049054906101000a900463ffffffff16905060008054906101000a900463ffffffff1660026113c4919061254c565b63ffffffff168163ffffffff1603611411576040517f08c379a0000000000000000000000000000000000000000000000000000000008152600401611408906125ed565b60405180910390fd5b6000819050600084905060008060005b60008054906101000a900463ffffffff1663ffffffff168163ffffffff1610156114ea576000600286611454919061260d565b63ffffffff1603611496578392506114718163ffffffff166109cb565b915083600160008363ffffffff168152602001908152602001600020819055506114b6565b600160008263ffffffff1681526020019081526020016000205492508391505b6114c68360001c8360001c61064d565b93506002856114d5919061263e565b945080806114e29061266f565b915050611421565b506000601e6001600360009054906101000a900463ffffffff1661150e919061269b565b611518919061260d565b905080600360006101000a81548163ffffffff021916908363ffffffff16021790555083600260008363ffffffff16815260200190815260200160002081905550600186611566919061269b565b600360046101000a81548163ffffffff021916908363ffffffff160217905550859650505050505050919050565b6000604051905090565b600080fd5b600080fd5b6000819050919050565b6115bb816115a8565b81146115c657600080fd5b50565b6000813590506115d8816115b2565b92915050565b600080604083850312156115f5576115f461159e565b5b6000611603858286016115c9565b9250506020611614858286016115c9565b9150509250929050565b6000819050919050565b6116318161161e565b811461163c57600080fd5b50565b60008135905061164e81611628565b92915050565b60006020828403121561166a5761166961159e565b5b60006116788482850161163f565b91505092915050565b60008115159050919050565b61169681611681565b82525050565b60006020820190506116b1600083018461168d565b92915050565b600073ffffffffffffffffffffffffffffffffffffffff82169050919050565b6000819050919050565b60006116fc6116f76116f2846116b7565b6116d7565b6116b7565b9050919050565b600061170e826116e1565b9050919050565b600061172082611703565b9050919050565b61173081611715565b82525050565b600060208201905061174b6000830184611727565b92915050565b600080fd5b600080fd5b6000601f19601f8301169050919050565b7f4e487b7100000000000000000000000000000000000000000000000000000000600052604160045260246000fd5b6117a48261175b565b810181811067ffffffffffffffff821117156117c3576117c261176c565b5b80604052505050565b60006117d6611594565b90506117e2828261179b565b919050565b600067ffffffffffffffff8211156118025761180161176c565b5b61180b8261175b565b9050602081019050919050565b82818337600083830152505050565b600061183a611835846117e7565b6117cc565b90508281526020810184848401111561185657611855611756565b5b611861848285611818565b509392505050565b600082601f83011261187e5761187d611751565b5b813561188e848260208601611827565b91505092915050565b600067ffffffffffffffff8211156118b2576118b161176c565b5b602082029050919050565b600080fd5b60006118d56118d084611897565b6117cc565b905080602084028301858111156118ef576118ee6118bd565b5b835b81811015611918578061190488826115c9565b8452602084019350506020810190506118f1565b5050509392505050565b600082601f83011261193757611936611751565b5b60026119448482856118c2565b91505092915050565b600067ffffffffffffffff8211156119685761196761176c565b5b602082029050919050565b60006119866119818461194d565b6117cc565b905080604084028301858111156119a05761199f6118bd565b5b835b818110156119c957806119b58882611922565b8452602084019350506040810190506119a2565b5050509392505050565b600082601f8301126119e8576119e7611751565b5b60026119f5848285611973565b91505092915050565b6000806000806000806101608789031215611a1c57611a1b61159e565b5b600087013567ffffffffffffffff811115611a3a57611a396115a3565b5b611a4689828a01611869565b9650506020611a5789828a016115c9565b9550506040611a6889828a016115c9565b9450506060611a7989828a01611922565b93505060a0611a8a89828a016119d3565b925050610120611a9c89828a01611922565b9150509295509295509295565b611ab2816115a8565b82525050565b6000602082019050611acd6000830184611aa9565b92915050565b600063ffffffff82169050919050565b611aec81611ad3565b82525050565b6000602082019050611b076000830184611ae3565b92915050565b611b168161161e565b82525050565b6000602082019050611b316000830184611b0d565b92915050565b600060208284031215611b4d57611b4c61159e565b5b6000611b5b848285016115c9565b91505092915050565b6000611b6f82611703565b9050919050565b611b7f81611b64565b82525050565b6000602082019050611b9a6000830184611b76565b92915050565b600082825260208201905092915050565b7f486173682068617320616c7265616479206265656e2075736564000000000000600082015250565b6000611be7601a83611ba0565b9150611bf282611bb1565b602082019050919050565b60006020820190508181036000830152611c1681611bda565b9050919050565b600081519050919050565b60005b83811015611c46578082015181840152602081019050611c2b565b60008484015250505050565b6000611c5d82611c1d565b611c678185611ba0565b9350611c77818560208601611c28565b611c808161175b565b840191505092915050565b60006020820190508181036000830152611ca58184611c52565b905092915050565b611cb681611681565b8114611cc157600080fd5b50565b600081519050611cd381611cad565b92915050565b600060208284031215611cef57611cee61159e565b5b6000611cfd84828501611cc4565b91505092915050565b7f43616e64696461746520646f6573206e6f742065786973740000000000000000600082015250565b6000611d3c601883611ba0565b9150611d4782611d06565b602082019050919050565b60006020820190508181036000830152611d6b81611d2f565b9050919050565b7f5f6c6566742073686f756c6420626520696e7369646520746865206669656c64600082015250565b6000611da8602083611ba0565b9150611db382611d72565b602082019050919050565b60006020820190508181036000830152611dd781611d9b565b9050919050565b7f5f72696768742073686f756c6420626520696e7369646520746865206669656c60008201527f6400000000000000000000000000000000000000000000000000000000000000602082015250565b6000611e3a602183611ba0565b9150611e4582611dde565b604082019050919050565b60006020820190508181036000830152611e6981611e2d565b9050919050565b6000819050919050565b6000611e95611e90611e8b84611e70565b6116d7565b6115a8565b9050919050565b611ea581611e7a565b82525050565b6000606082019050611ec06000830186611aa9565b611ecd6020830185611aa9565b611eda6040830184611e9c565b949350505050565b600081519050611ef1816115b2565b92915050565b60008060408385031215611f0e57611f0d61159e565b5b6000611f1c85828601611ee2565b9250506020611f2d85828601611ee2565b9150509250929050565b7f4e487b7100000000000000000000000000000000000000000000000000000000600052601260045260246000fd5b7f4e487b7100000000000000000000000000000000000000000000000000000000600052601160045260246000fd5b6000611fa082611ad3565b915060008203611fb357611fb2611f66565b5b600182039050919050565b7f496e646578206f7574206f6620626f756e647300000000000000000000000000600082015250565b6000611ff4601383611ba0565b9150611fff82611fbe565b602082019050919050565b6000602082019050818103600083015261202381611fe7565b9050919050565b7f54686520636f6d6d69746d656e7420686173206265656e207375626d6974746560008201527f6400000000000000000000000000000000000000000000000000000000000000602082015250565b6000612086602183611ba0565b91506120918261202a565b604082019050919050565b600060208201905081810360008301526120b581612079565b9050919050565b60006040820190506120d16000830185611ae3565b6120de6020830184611aa9565b9392505050565b7f546865206e756c6c696669657220686173206265656e207375626d6974746564600082015250565b600061211b602083611ba0565b9150612126826120e5565b602082019050919050565b6000602082019050818103600083015261214a8161210e565b9050919050565b7f43616e6e6f742066696e6420796f7572206d65726b6c6520726f6f7400000000600082015250565b6000612187601c83611ba0565b915061219282612151565b602082019050919050565b600060208201905081810360008301526121b68161217a565b9050919050565b600060029050919050565b600081905092915050565b6000819050919050565b6121e6816115a8565b82525050565b60006121f883836121dd565b60208301905092915050565b6000602082019050919050565b61221a816121bd565b61222481846121c8565b925061222f826121d3565b8060005b8381101561226057815161224787826121ec565b965061225283612204565b925050600181019050612233565b505050505050565b600060029050919050565b600081905092915050565b6000819050919050565b600081905092915050565b61229c816121bd565b6122a68184612288565b92506122b1826121d3565b8060005b838110156122e25781516122c987826121ec565b96506122d483612204565b9250506001810190506122b5565b505050505050565b60006122f68383612293565b60408301905092915050565b6000602082019050919050565b61231881612268565b6123228184612273565b925061232d8261227e565b8060005b8381101561235e57815161234587826122ea565b965061235083612302565b925050600181019050612331565b505050505050565b60006101408201905061237c6000830187612211565b612389604083018661230f565b61239660c0830185612211565b6123a4610100830184612211565b95945050505050565b7f496e76616c69642070726f6f6600000000000000000000000000000000000000600082015250565b60006123e3600d83611ba0565b91506123ee826123ad565b602082019050919050565b60006020820190508181036000830152612412816123d6565b9050919050565b60008160011c9050919050565b6000808291508390505b60018511156124705780860481111561244c5761244b611f66565b5b600185161561245b5780820291505b808102905061246985612419565b9450612430565b94509492505050565b6000826124895760019050612545565b816124975760009050612545565b81600181146124ad57600281146124b7576124e6565b6001915050612545565b60ff8411156124c9576124c8611f66565b5b8360020a9150848211156124e0576124df611f66565b5b50612545565b5060208310610133831016604e8410600b841016171561251b5782820a90508381111561251657612515611f66565b5b612545565b6125288484846001612426565b9250905081840481111561253f5761253e611f66565b5b81810290505b9392505050565b600061255782611ad3565b915061256283611ad3565b925061257363ffffffff8484612479565b905092915050565b7f4d65726b6c6520747265652069732066756c6c2e204e6f206d6f7265206c656160008201527f7665732063616e20626520616464656400000000000000000000000000000000602082015250565b60006125d7603083611ba0565b91506125e28261257b565b604082019050919050565b60006020820190508181036000830152612606816125ca565b9050919050565b600061261882611ad3565b915061262383611ad3565b92508261263357612632611f37565b5b828206905092915050565b600061264982611ad3565b915061265483611ad3565b92508261266457612663611f37565b5b828204905092915050565b600061267a82611ad3565b915063ffffffff82036126905761268f611f66565b5b600182019050919050565b60006126a682611ad3565b91506126b183611ad3565b9250828201905063ffffffff8111156126cd576126cc611f66565b5b9291505056fea26469706673582212202ad14369c9aa90886cf574dbf4a14a19c2ea05e019b448be31117eed9576425b64736f6c63430008110033608060405234801561001057600080fd5b5060405161001d9061007e565b604051809103906000f080158015610039573d6000803e3d6000fd5b506000806101000a81548173ffffffffffffffffffffffffffffffffffffffff021916908373ffffffffffffffffffffffffffffffffffffffff16021790555061008b565b611a0f8061070283390190565b6106688061009a6000396000f3fe608060405234801561001057600080fd5b506004361061002b5760003560e01c8063f5c9d69e14610030575b600080fd5b61004a6004803603810190610045919061034a565b610060565b60405161005791906103ce565b60405180910390f35b60008060009054906101000a900473ffffffffffffffffffffffffffffffffffffffff1673ffffffffffffffffffffffffffffffffffffffff1663f5c9d69e868686866040518563ffffffff1660e01b81526004016100c29493929190610592565b602060405180830381865afa1580156100df573d6000803e3d6000fd5b505050506040513d601f19601f820116820180604052508101906101039190610605565b9050949350505050565b6000604051905090565b600080fd5b600080fd5b6000601f19601f8301169050919050565b7f4e487b7100000000000000000000000000000000000000000000000000000000600052604160045260246000fd5b61016a82610121565b810181811067ffffffffffffffff8211171561018957610188610132565b5b80604052505050565b600061019c61010d565b90506101a88282610161565b919050565b600067ffffffffffffffff8211156101c8576101c7610132565b5b602082029050919050565b600080fd5b6000819050919050565b6101eb816101d8565b81146101f657600080fd5b50565b600081359050610208816101e2565b92915050565b600061022161021c846101ad565b610192565b9050806020840283018581111561023b5761023a6101d3565b5b835b81811015610264578061025088826101f9565b84526020840193505060208101905061023d565b5050509392505050565b600082601f8301126102835761028261011c565b5b600261029084828561020e565b91505092915050565b600067ffffffffffffffff8211156102b4576102b3610132565b5b602082029050919050565b60006102d26102cd84610299565b610192565b905080604084028301858111156102ec576102eb6101d3565b5b835b818110156103155780610301888261026e565b8452602084019350506040810190506102ee565b5050509392505050565b600082601f8301126103345761033361011c565b5b60026103418482856102bf565b91505092915050565b600080600080610140858703121561036557610364610117565b5b60006103738782880161026e565b94505060406103848782880161031f565b93505060c06103958782880161026e565b9250506101006103a78782880161026e565b91505092959194509250565b60008115159050919050565b6103c8816103b3565b82525050565b60006020820190506103e360008301846103bf565b92915050565b600060029050919050565b600081905092915050565b6000819050919050565b610412816101d8565b82525050565b60006104248383610409565b60208301905092915050565b6000602082019050919050565b610446816103e9565b61045081846103f4565b925061045b826103ff565b8060005b8381101561048c5781516104738782610418565b965061047e83610430565b92505060018101905061045f565b505050505050565b600060029050919050565b600081905092915050565b6000819050919050565b600081905092915050565b6104c8816103e9565b6104d281846104b4565b92506104dd826103ff565b8060005b8381101561050e5781516104f58782610418565b965061050083610430565b9250506001810190506104e1565b505050505050565b600061052283836104bf565b60408301905092915050565b6000602082019050919050565b61054481610494565b61054e818461049f565b9250610559826104aa565b8060005b8381101561058a5781516105718782610516565b965061057c8361052e565b92505060018101905061055d565b505050505050565b6000610140820190506105a8600083018761043d565b6105b5604083018661053b565b6105c260c083018561043d565b6105d061010083018461043d565b95945050505050565b6105e2816103b3565b81146105ed57600080fd5b50565b6000815190506105ff816105d9565b92915050565b60006020828403121561061b5761061a610117565b5b6000610629848285016105f0565b9150509291505056fea26469706673582212202a2ff77b8a6a32eb56773a7c26378a90a885d6a65d7dab3c1bed32048ea79cfe64736f6c63430008110033608060405234801561001057600080fd5b506119ef806100206000396000f3fe608060405234801561001057600080fd5b506004361061002b5760003560e01c8063f5c9d69e14610030575b600080fd5b61004a600480360381019061004591906114d1565b610060565b6040516100579190611555565b60405180910390f35b600061006a611152565b60405180604001604052808760006002811061008957610088611570565b5b60200201518152602001876001600281106100a7576100a6611570565b5b6020020151815250816000018190525060405180604001604052806040518060400160405280886000600281106100e1576100e0611570565b5b60200201516000600281106100f9576100f8611570565b5b602002015181526020018860006002811061011757610116611570565b5b602002015160016002811061012f5761012e611570565b5b6020020151815250815260200160405180604001604052808860016002811061015b5761015a611570565b5b602002015160006002811061017357610172611570565b5b602002015181526020018860016002811061019157610190611570565b5b60200201516001600281106101a9576101a8611570565b5b602002015181525081525081602001819052506040518060400160405280856000600281106101db576101da611570565b5b60200201518152602001856001600281106101f9576101f8611570565b5b602002015181525081604001819052506000600267ffffffffffffffff811115610226576102256112b9565b5b6040519080825280602002602001820160405280156102545781602001602082028036833780820191505090505b50905060005b60028110156102ad5784816002811061027657610275611570565b5b602002015182828151811061028e5761028d611570565b5b60200260200101818152505080806102a5906115ce565b91505061025a565b5060006102ba82846102d9565b036102ca576001925050506102d1565b6000925050505b949350505050565b6000807f30644e72e131a029b85045b68181585d2833e84879b9709143e1f593f0000001905060006103096104cc565b90508060800151516001865161031f9190611616565b1461035f576040517f08c379a0000000000000000000000000000000000000000000000000000000008152600401610356906116a7565b60405180910390fd5b60006040518060400160405280600081526020016000815250905060005b865181101561044e578387828151811061039a57610399611570565b5b6020026020010151106103e2576040517f08c379a00000000000000000000000000000000000000000000000000000000081526004016103d990611713565b60405180910390fd5b6104398261043485608001516001856103fb9190611616565b8151811061040c5761040b611570565b5b60200260200101518a858151811061042757610426611570565b5b6020026020010151610948565b610a20565b91508080610446906115ce565b91505061037d565b5061047881836080015160008151811061046b5761046a611570565b5b6020026020010151610a20565b90506104ae61048a8660000151610b1e565b8660200151846000015185602001518587604001518b604001518960600151610bc3565b6104be57600193505050506104c6565b600093505050505b92915050565b6104d4611185565b60405180604001604052807f2d4d9aa7e302d9df41749d5507949d05dbea33fbb16c643b22f599a2be6df2e281526020017f14bedd503c37ceb061d8ec60209fe345ce89830a19230301f076caff004d19268152508160000181905250604051806040016040528060405180604001604052807f0967032fcbf776d1afc985f88877f182d38480a653f2decaa9794cbc3bf3060c81526020017f0e187847ad4c798374d0d6732bf501847dd68bc0e071241e0213bc7fc13db7ab815250815260200160405180604001604052807f304cfbd1e08a704a99f5e847d93f8c3caafddec46b7a0d379da69a4d112346a781526020017f1739c1b1a457a8c7313123d24d2f9192f896b7c63eea05a9d57f06547ad0cec88152508152508160200181905250604051806040016040528060405180604001604052807f198e9393920d483a7260bfb731fb5d25f1aa493335a9e71297e485b7aef312c281526020017f1800deef121f1e76426a00665e5c4479674322d4f75edadd46debd5cd992f6ed815250815260200160405180604001604052807f090689d0585ff075ec9e99ad690c3395bc4b313370b38ef355acdadcd122975b81526020017f12c85ea5db8c6deb4aab71808dcb408fe3d1e7690c43d37b4ce6cc0166fa7daa8152508152508160400181905250604051806040016040528060405180604001604052807f198e9393920d483a7260bfb731fb5d25f1aa493335a9e71297e485b7aef312c281526020017f1800deef121f1e76426a00665e5c4479674322d4f75edadd46debd5cd992f6ed815250815260200160405180604001604052807f090689d0585ff075ec9e99ad690c3395bc4b313370b38ef355acdadcd122975b81526020017f12c85ea5db8c6deb4aab71808dcb408fe3d1e7690c43d37b4ce6cc0166fa7daa8152508152508160600181905250600367ffffffffffffffff81111561079b5761079a6112b9565b5b6040519080825280602002602001820160405280156107d457816020015b6107c16111cc565b8152602001906001900390816107b95790505b50816080018190525060405180604001604052807f020163e70c56f84f120db0a5c8fdb675a5233d4474d7b7d5ea96b2e3c32d16fe81526020017f1e732adbfb31f1fd6dea615e4304ac3372bc61d274a353bd34318f3f9d75735d815250816080015160008151811061084a57610849611570565b5b602002602001018190525060405180604001604052807f20bd1d187556a6d75fbb47ee23481ee36d1e8f81bf10043e5bffc1cd8536e4c281526020017f0266d8972ad53bba47b7f1337379b3d03434bc442a49cbd9b910f44c7dd6f8d581525081608001516001815181106108c2576108c1611570565b5b602002602001018190525060405180604001604052807f09bf9264ae6f2136a12436bc78419bf4428fb9516943a3dc8a298fe798d26e6881526020017f1cbf01b537141584b3b4775016a4653f566ec617331e2ad44c10657ec8f91d97815250816080015160028151811061093a57610939611570565b5b602002602001018190525090565b6109506111cc565b6109586111e6565b83600001518160006003811061097157610970611570565b5b60200201818152505083602001518160016003811061099357610992611570565b5b60200201818152505082816002600381106109b1576109b0611570565b5b602002018181525050600060608360808460076107d05a03fa905080600081036109d757fe5b5080610a18576040517f08c379a0000000000000000000000000000000000000000000000000000000008152600401610a0f9061177f565b60405180910390fd5b505092915050565b610a286111cc565b610a30611208565b836000015181600060048110610a4957610a48611570565b5b602002018181525050836020015181600160048110610a6b57610a6a611570565b5b602002018181525050826000015181600260048110610a8d57610a8c611570565b5b602002018181525050826020015181600360048110610aaf57610aae611570565b5b602002018181525050600060608360c08460066107d05a03fa90508060008103610ad557fe5b5080610b16576040517f08c379a0000000000000000000000000000000000000000000000000000000008152600401610b0d906117eb565b60405180910390fd5b505092915050565b610b266111cc565b60007f30644e72e131a029b85045b68181585d97816a916871ca8d3c208c16d87cfd47905060008360000151148015610b63575060008360200151145b15610b87576040518060400160405280600081526020016000815250915050610bbe565b604051806040016040528084600001518152602001828560200151610bac919061183a565b83610bb7919061186b565b8152509150505b919050565b600080600467ffffffffffffffff811115610be157610be06112b9565b5b604051908082528060200260200182016040528015610c1a57816020015b610c076111cc565b815260200190600190039081610bff5790505b5090506000600467ffffffffffffffff811115610c3a57610c396112b9565b5b604051908082528060200260200182016040528015610c7357816020015b610c6061122a565b815260200190600190039081610c585790505b5090508a82600081518110610c8b57610c8a611570565b5b60200260200101819052508882600181518110610cab57610caa611570565b5b60200260200101819052508682600281518110610ccb57610cca611570565b5b60200260200101819052508482600381518110610ceb57610cea611570565b5b60200260200101819052508981600081518110610d0b57610d0a611570565b5b60200260200101819052508781600181518110610d2b57610d2a611570565b5b60200260200101819052508581600281518110610d4b57610d4a611570565b5b60200260200101819052508381600381518110610d6b57610d6a611570565b5b6020026020010181905250610d808282610d90565b9250505098975050505050505050565b60008151835114610dd6576040517f08c379a0000000000000000000000000000000000000000000000000000000008152600401610dcd906118eb565b60405180910390fd5b6000835190506000600682610deb919061190b565b905060008167ffffffffffffffff811115610e0957610e086112b9565b5b604051908082528060200260200182016040528015610e375781602001602082028036833780820191505090505b50905060005b838110156110bc57868181518110610e5857610e57611570565b5b602002602001015160000151826000600684610e74919061190b565b610e7e9190611616565b81518110610e8f57610e8e611570565b5b602002602001018181525050868181518110610eae57610ead611570565b5b602002602001015160200151826001600684610eca919061190b565b610ed49190611616565b81518110610ee557610ee4611570565b5b602002602001018181525050858181518110610f0457610f03611570565b5b602002602001015160000151600060028110610f2357610f22611570565b5b6020020151826002600684610f38919061190b565b610f429190611616565b81518110610f5357610f52611570565b5b602002602001018181525050858181518110610f7257610f71611570565b5b602002602001015160000151600160028110610f9157610f90611570565b5b6020020151826003600684610fa6919061190b565b610fb09190611616565b81518110610fc157610fc0611570565b5b602002602001018181525050858181518110610fe057610fdf611570565b5b602002602001015160200151600060028110610fff57610ffe611570565b5b6020020151826004600684611014919061190b565b61101e9190611616565b8151811061102f5761102e611570565b5b60200260200101818152505085818151811061104e5761104d611570565b5b60200260200101516020015160016002811061106d5761106c611570565b5b6020020151826005600684611082919061190b565b61108c9190611616565b8151811061109d5761109c611570565b5b60200260200101818152505080806110b4906115ce565b915050610e3d565b506110c5611250565b6000602082602086026020860160086107d05a03fa905080600081036110e757fe5b5080611128576040517f08c379a000000000000000000000000000000000000000000000000000000000815260040161111f90611999565b60405180910390fd5b60008260006001811061113e5761113d611570565b5b602002015114159550505050505092915050565b60405180606001604052806111656111cc565b815260200161117261122a565b815260200161117f6111cc565b81525090565b6040518060a001604052806111986111cc565b81526020016111a561122a565b81526020016111b261122a565b81526020016111bf61122a565b8152602001606081525090565b604051806040016040528060008152602001600081525090565b6040518060600160405280600390602082028036833780820191505090505090565b6040518060800160405280600490602082028036833780820191505090505090565b604051806040016040528061123d611272565b815260200161124a611272565b81525090565b6040518060200160405280600190602082028036833780820191505090505090565b6040518060400160405280600290602082028036833780820191505090505090565b6000604051905090565b600080fd5b600080fd5b6000601f19601f8301169050919050565b7f4e487b7100000000000000000000000000000000000000000000000000000000600052604160045260246000fd5b6112f1826112a8565b810181811067ffffffffffffffff821117156113105761130f6112b9565b5b80604052505050565b6000611323611294565b905061132f82826112e8565b919050565b600067ffffffffffffffff82111561134f5761134e6112b9565b5b602082029050919050565b600080fd5b6000819050919050565b6113728161135f565b811461137d57600080fd5b50565b60008135905061138f81611369565b92915050565b60006113a86113a384611334565b611319565b905080602084028301858111156113c2576113c161135a565b5b835b818110156113eb57806113d78882611380565b8452602084019350506020810190506113c4565b5050509392505050565b600082601f83011261140a576114096112a3565b5b6002611417848285611395565b91505092915050565b600067ffffffffffffffff82111561143b5761143a6112b9565b5b602082029050919050565b600061145961145484611420565b611319565b905080604084028301858111156114735761147261135a565b5b835b8181101561149c578061148888826113f5565b845260208401935050604081019050611475565b5050509392505050565b600082601f8301126114bb576114ba6112a3565b5b60026114c8848285611446565b91505092915050565b60008060008061014085870312156114ec576114eb61129e565b5b60006114fa878288016113f5565b945050604061150b878288016114a6565b93505060c061151c878288016113f5565b92505061010061152e878288016113f5565b91505092959194509250565b60008115159050919050565b61154f8161153a565b82525050565b600060208201905061156a6000830184611546565b92915050565b7f4e487b7100000000000000000000000000000000000000000000000000000000600052603260045260246000fd5b7f4e487b7100000000000000000000000000000000000000000000000000000000600052601160045260246000fd5b60006115d98261135f565b91507fffffffffffffffffffffffffffffffffffffffffffffffffffffffffffffffff820361160b5761160a61159f565b5b600182019050919050565b60006116218261135f565b915061162c8361135f565b92508282019050808211156116445761164361159f565b5b92915050565b600082825260208201905092915050565b7f76657269666965722d6261642d696e7075740000000000000000000000000000600082015250565b600061169160128361164a565b915061169c8261165b565b602082019050919050565b600060208201905081810360008301526116c081611684565b9050919050565b7f76657269666965722d6774652d736e61726b2d7363616c61722d6669656c6400600082015250565b60006116fd601f8361164a565b9150611708826116c7565b602082019050919050565b6000602082019050818103600083015261172c816116f0565b9050919050565b7f70616972696e672d6d756c2d6661696c65640000000000000000000000000000600082015250565b600061176960128361164a565b915061177482611733565b602082019050919050565b600060208201905081810360008301526117988161175c565b9050919050565b7f70616972696e672d6164642d6661696c65640000000000000000000000000000600082015250565b60006117d560128361164a565b91506117e08261179f565b602082019050919050565b60006020820190508181036000830152611804816117c8565b9050919050565b7f4e487b7100000000000000000000000000000000000000000000000000000000600052601260045260246000fd5b60006118458261135f565b91506118508361135f565b9250826118605761185f61180b565b5b828206905092915050565b60006118768261135f565b91506118818361135f565b92508282039050818111156118995761189861159f565b5b92915050565b7f70616972696e672d6c656e677468732d6661696c656400000000000000000000600082015250565b60006118d560168361164a565b91506118e08261189f565b602082019050919050565b60006020820190508181036000830152611904816118c8565b9050919050565b60006119168261135f565b91506119218361135f565b925082820261192f8161135f565b915082820484148315176119465761194561159f565b5b5092915050565b7f70616972696e672d6f70636f64652d6661696c65640000000000000000000000600082015250565b600061198360158361164a565b915061198e8261194d565b602082019050919050565b600060208201905081810360008301526119b281611976565b905091905056fea26469706673582212209a489983fe63deb1c42d40b0f10e9c7a78f82efe00a1465e99ff3ad51fd3809264736f6c63430008110033",
  "immutableReferences": {},
  "source": "// SPDX-License-Identifier: MIT\r\npragma solidity ^0.8.0;\r\n\r\nimport \"./CandidateManager.sol\";\r\nimport \"./ParticipantManager.sol\";\r\n\r\ncontract VotingEvent {\r\n    CandidateManager private candidateManager;\r\n    ParticipantManager private participantManager;\r\n    address private host;\r\n    bool private isCurrentlyVoting;\r\n\r\n    constructor(address _host, IHasher _hasher) {\r\n        candidateManager = new CandidateManager();\r\n        participantManager = new ParticipantManager(candidateManager, _hasher);\r\n        host = _host;\r\n        isCurrentlyVoting = false;\r\n    }\r\n\r\n    function getCandidateManager() public view returns (CandidateManager) {\r\n        return candidateManager;\r\n    }\r\n\r\n    function getParticipantManager() public view returns (ParticipantManager) {\r\n        return participantManager;\r\n    }\r\n\r\n    function getHost() public view returns (address) {\r\n        return host;\r\n    }\r\n\r\n    function getIsCurrentlyVoting() public view returns (bool) {\r\n        return isCurrentlyVoting;\r\n    }\r\n\r\n    function setIsCurrentlyVoting(bool _isCurrentlyVoting) public {\r\n        isCurrentlyVoting = _isCurrentlyVoting;\r\n    }\r\n}",
  "sourcePath": "D:\\BlockChain\\KL-Mini-Hack\\truffle-project\\contracts\\VotingEvent.sol",
  "compiler": {
    "name": "solc",
    "version": "0.8.17+commit.8df45f5f.Emscripten.clang"
  },
  "schemaVersion": "3.4.11",
  "updatedAt": "2023-02-17T12:56:00.688Z",
  "networkType": "ethereum",
  "devdoc": {
    "kind": "dev",
    "methods": {},
    "version": 1
  },
  "userdoc": {
    "kind": "user",
    "methods": {},
    "version": 1
  }
}